{
  "contractName": "AirtheeHouseToken",
  "abi": [
    {
      "inputs": [],
      "stateMutability": "nonpayable",
      "type": "constructor"
    },
    {
      "anonymous": false,
      "inputs": [
        {
          "indexed": true,
          "internalType": "address",
          "name": "owner",
          "type": "address"
        },
        {
          "indexed": true,
          "internalType": "address",
          "name": "approved",
          "type": "address"
        },
        {
          "indexed": true,
          "internalType": "uint256",
          "name": "tokenId",
          "type": "uint256"
        }
      ],
      "name": "Approval",
      "type": "event"
    },
    {
      "anonymous": false,
      "inputs": [
        {
          "indexed": true,
          "internalType": "address",
          "name": "owner",
          "type": "address"
        },
        {
          "indexed": true,
          "internalType": "address",
          "name": "operator",
          "type": "address"
        },
        {
          "indexed": false,
          "internalType": "bool",
          "name": "approved",
          "type": "bool"
        }
      ],
      "name": "ApprovalForAll",
      "type": "event"
    },
    {
      "anonymous": false,
      "inputs": [
        {
          "indexed": false,
          "internalType": "address",
          "name": "previousOwner",
          "type": "address"
        },
        {
          "indexed": false,
          "internalType": "address",
          "name": "newOwner",
          "type": "address"
        }
      ],
      "name": "OwnerShipTransfered",
      "type": "event"
    },
    {
      "anonymous": false,
      "inputs": [],
      "name": "Paused",
      "type": "event"
    },
    {
      "anonymous": false,
      "inputs": [
        {
          "indexed": true,
          "internalType": "address",
          "name": "from",
          "type": "address"
        },
        {
          "indexed": true,
          "internalType": "address",
          "name": "to",
          "type": "address"
        },
        {
          "indexed": true,
          "internalType": "uint256",
          "name": "tokenId",
          "type": "uint256"
        }
      ],
      "name": "Transfer",
      "type": "event"
    },
    {
      "anonymous": false,
      "inputs": [],
      "name": "Unpaused",
      "type": "event"
    },
    {
      "inputs": [
        {
          "internalType": "address",
          "name": "to",
          "type": "address"
        },
        {
          "internalType": "uint256",
          "name": "tokenId",
          "type": "uint256"
        }
      ],
      "name": "approve",
      "outputs": [],
      "stateMutability": "nonpayable",
      "type": "function"
    },
    {
      "inputs": [
        {
          "internalType": "address",
          "name": "owner",
          "type": "address"
        }
      ],
      "name": "balanceOf",
      "outputs": [
        {
          "internalType": "uint256",
          "name": "",
          "type": "uint256"
        }
      ],
      "stateMutability": "view",
      "type": "function"
    },
    {
      "inputs": [
        {
          "internalType": "uint256",
          "name": "tokenId",
          "type": "uint256"
        }
      ],
      "name": "getApproved",
      "outputs": [
        {
          "internalType": "address",
          "name": "",
          "type": "address"
        }
      ],
      "stateMutability": "view",
      "type": "function"
    },
    {
      "inputs": [],
      "name": "getBaseTokenURI",
      "outputs": [
        {
          "internalType": "string",
          "name": "",
          "type": "string"
        }
      ],
      "stateMutability": "view",
      "type": "function"
    },
    {
      "inputs": [],
      "name": "getName",
      "outputs": [
        {
          "internalType": "string",
          "name": "",
          "type": "string"
        }
      ],
      "stateMutability": "view",
      "type": "function"
    },
    {
      "inputs": [],
      "name": "getOwner",
      "outputs": [
        {
          "internalType": "address",
          "name": "",
          "type": "address"
        }
      ],
      "stateMutability": "view",
      "type": "function"
    },
    {
      "inputs": [],
      "name": "getSymbol",
      "outputs": [
        {
          "internalType": "string",
          "name": "",
          "type": "string"
        }
      ],
      "stateMutability": "view",
      "type": "function"
    },
    {
      "inputs": [
        {
          "internalType": "address",
          "name": "owner",
          "type": "address"
        },
        {
          "internalType": "address",
          "name": "operator",
          "type": "address"
        }
      ],
      "name": "isApprovedForAll",
      "outputs": [
        {
          "internalType": "bool",
          "name": "",
          "type": "bool"
        }
      ],
      "stateMutability": "view",
      "type": "function"
    },
    {
      "inputs": [],
      "name": "isPaused",
      "outputs": [
        {
          "internalType": "bool",
          "name": "",
          "type": "bool"
        }
      ],
      "stateMutability": "view",
      "type": "function"
    },
    {
      "inputs": [
        {
          "internalType": "uint256",
          "name": "tokenId",
          "type": "uint256"
        }
      ],
      "name": "ownerOf",
      "outputs": [
        {
          "internalType": "address",
          "name": "",
          "type": "address"
        }
      ],
      "stateMutability": "view",
      "type": "function"
    },
    {
      "inputs": [],
      "name": "pause",
      "outputs": [],
      "stateMutability": "nonpayable",
      "type": "function"
    },
    {
      "inputs": [
        {
          "internalType": "address",
          "name": "from",
          "type": "address"
        },
        {
          "internalType": "address",
          "name": "to",
          "type": "address"
        },
        {
          "internalType": "uint256",
          "name": "tokenId",
          "type": "uint256"
        }
      ],
      "name": "safeTransferFrom",
      "outputs": [],
      "stateMutability": "nonpayable",
      "type": "function"
    },
    {
      "inputs": [
        {
          "internalType": "address",
          "name": "from",
          "type": "address"
        },
        {
          "internalType": "address",
          "name": "to",
          "type": "address"
        },
        {
          "internalType": "uint256",
          "name": "tokenId",
          "type": "uint256"
        },
        {
          "internalType": "bytes",
          "name": "_data",
          "type": "bytes"
        }
      ],
      "name": "safeTransferFrom",
      "outputs": [],
      "stateMutability": "nonpayable",
      "type": "function"
    },
    {
      "inputs": [
        {
          "internalType": "address",
          "name": "to",
          "type": "address"
        },
        {
          "internalType": "bool",
          "name": "approved",
          "type": "bool"
        }
      ],
      "name": "setApprovalForAll",
      "outputs": [],
      "stateMutability": "nonpayable",
      "type": "function"
    },
    {
      "inputs": [
        {
          "internalType": "bytes4",
          "name": "interfaceId",
          "type": "bytes4"
        }
      ],
      "name": "supportsInterface",
      "outputs": [
        {
          "internalType": "bool",
          "name": "",
          "type": "bool"
        }
      ],
      "stateMutability": "view",
      "type": "function"
    },
    {
      "inputs": [
        {
          "internalType": "uint256",
          "name": "index",
          "type": "uint256"
        }
      ],
      "name": "tokenByIndex",
      "outputs": [
        {
          "internalType": "uint256",
          "name": "",
          "type": "uint256"
        }
      ],
      "stateMutability": "view",
      "type": "function"
    },
    {
      "inputs": [
        {
          "internalType": "address",
          "name": "owner",
          "type": "address"
        },
        {
          "internalType": "uint256",
          "name": "index",
          "type": "uint256"
        }
      ],
      "name": "tokenOfOwnerByIndex",
      "outputs": [
        {
          "internalType": "uint256",
          "name": "",
          "type": "uint256"
        }
      ],
      "stateMutability": "view",
      "type": "function"
    },
    {
      "inputs": [
        {
          "internalType": "uint256",
          "name": "tokenId",
          "type": "uint256"
        }
      ],
      "name": "tokenURI",
      "outputs": [
        {
          "internalType": "string",
          "name": "",
          "type": "string"
        }
      ],
      "stateMutability": "view",
      "type": "function"
    },
    {
      "inputs": [],
      "name": "totalSupply",
      "outputs": [
        {
          "internalType": "uint256",
          "name": "",
          "type": "uint256"
        }
      ],
      "stateMutability": "view",
      "type": "function"
    },
    {
      "inputs": [
        {
          "internalType": "address",
          "name": "from",
          "type": "address"
        },
        {
          "internalType": "address",
          "name": "to",
          "type": "address"
        },
        {
          "internalType": "uint256",
          "name": "tokenId",
          "type": "uint256"
        }
      ],
      "name": "transferFrom",
      "outputs": [],
      "stateMutability": "nonpayable",
      "type": "function"
    },
    {
      "inputs": [
        {
          "internalType": "address",
          "name": "newOwner",
          "type": "address"
        }
      ],
      "name": "transferOwnership",
      "outputs": [],
      "stateMutability": "nonpayable",
      "type": "function"
    },
    {
      "inputs": [],
      "name": "unpause",
      "outputs": [],
      "stateMutability": "nonpayable",
      "type": "function"
    },
    {
      "inputs": [
        {
          "internalType": "address",
          "name": "to",
          "type": "address"
        },
        {
          "internalType": "uint256",
          "name": "tokenId",
          "type": "uint256"
        }
      ],
      "name": "mint",
      "outputs": [
        {
          "internalType": "bool",
          "name": "",
          "type": "bool"
        }
      ],
      "stateMutability": "nonpayable",
      "type": "function"
    }
  ],
  "bytecode": "0x60806040523480156200001157600080fd5b506040518060400160405280601181526020017f41697274686565486f757365546f6b656e0000000000000000000000000000008152506040518060400160405280600381526020017f41485400000000000000000000000000000000000000000000000000000000008152506040518060600160405280603f815260200162003636603f9139336000806101000a81548173ffffffffffffffffffffffffffffffffffffffff021916908373ffffffffffffffffffffffffffffffffffffffff1602179055507f7968eab4b22bf038ec92ebe260f1348c78cfe6aab0cde2542e0b9da6a6eb8f8e60008060009054906101000a900473ffffffffffffffffffffffffffffffffffffffff166040516200012d92919062000364565b60405180910390a160008060146101000a81548160ff021916908315150217905550620001676301ffc9a760e01b6200020360201b60201c565b6200017f6380ac58cd60e01b6200020360201b60201c565b6200019763780e9d6360e01b6200020360201b60201c565b82600a9080519060200190620001af929190620002a3565b5081600b9080519060200190620001c8929190620002a3565b5080600c9080519060200190620001e1929190620002a3565b50620001fa635b5e139f60e01b6200020360201b60201c565b5050506200042a565b63ffffffff60e01b817bffffffffffffffffffffffffffffffffffffffffffffffffffffffff191614156200023757600080fd5b6001806000837bffffffffffffffffffffffffffffffffffffffffffffffffffffffff19167bffffffffffffffffffffffffffffffffffffffffffffffffffffffff1916815260200190815260200160002060006101000a81548160ff02191690831515021790555050565b828054620002b190620003c5565b90600052602060002090601f016020900481019282620002d5576000855562000321565b82601f10620002f057805160ff191683800117855562000321565b8280016001018555821562000321579182015b828111156200032057825182559160200191906001019062000303565b5b50905062000330919062000334565b5090565b5b808211156200034f57600081600090555060010162000335565b5090565b6200035e8162000391565b82525050565b60006040820190506200037b600083018562000353565b6200038a602083018462000353565b9392505050565b60006200039e82620003a5565b9050919050565b600073ffffffffffffffffffffffffffffffffffffffff82169050919050565b60006002820490506001821680620003de57607f821691505b60208210811415620003f557620003f4620003fb565b5b50919050565b7f4e487b7100000000000000000000000000000000000000000000000000000000600052602260045260246000fd5b6131fc806200043a6000396000f3fe608060405234801561001057600080fd5b506004361061014d5760003560e01c80634f6ccce7116100c3578063b187bd261161007c578063b187bd261461039e578063b88d4fde146103bc578063bdc32be0146103d8578063c87b56dd146103f6578063e985e9c514610426578063f2fde38b146104565761014d565b80634f6ccce7146102ca5780636352211e146102fa57806370a082311461032a5780638456cb591461035a578063893d20e814610364578063a22cb465146103825761014d565b806318160ddd1161011557806318160ddd1461020a57806323b872dd146102285780632f745c59146102445780633f4ba83a1461027457806340c10f191461027e57806342842e0e146102ae5761014d565b806301ffc9a714610152578063081812fc14610182578063095ea7b3146101b257806315070401146101ce57806317d7de7c146101ec575b600080fd5b61016c600480360381019061016791906123a1565b610472565b60405161017991906127f2565b60405180910390f35b61019c600480360381019061019791906123fb565b6104da565b6040516101a99190612762565b60405180910390f35b6101cc60048036038101906101c79190612361565b610517565b005b6101d6610714565b6040516101e3919061280d565b60405180910390f35b6101f46107a6565b604051610201919061280d565b60405180910390f35b610212610838565b60405161021f91906129cf565b60405180910390f35b610242600480360381019061023d919061224b565b610845565b005b61025e60048036038101906102599190612361565b6108ee565b60405161026b91906129cf565b60405180910390f35b61027c610968565b005b61029860048036038101906102939190612361565b610a8d565b6040516102a591906127f2565b60405180910390f35b6102c860048036038101906102c3919061224b565b610b8b565b005b6102e460048036038101906102df91906123fb565b610bfb565b6040516102f191906129cf565b60405180910390f35b610314600480360381019061030f91906123fb565b610c36565b6040516103219190612762565b60405180910390f35b610344600480360381019061033f91906121de565b610c73565b60405161035191906129cf565b60405180910390f35b610362610cc3565b005b61036c610dea565b6040516103799190612762565b60405180910390f35b61039c60048036038101906103979190612321565b610e13565b005b6103a6610f99565b6040516103b391906127f2565b60405180910390f35b6103d660048036038101906103d1919061229e565b610faf565b005b6103e0611025565b6040516103ed919061280d565b60405180910390f35b610410600480360381019061040b91906123fb565b6110b7565b60405161041d919061280d565b60405180910390f35b610440600480360381019061043b919061220b565b61116e565b60405161044d91906127f2565b60405180910390f35b610470600480360381019061046b91906121de565b611202565b005b600060016000837bffffffffffffffffffffffffffffffffffffffffffffffffffffffff19167bffffffffffffffffffffffffffffffffffffffffffffffffffffffff1916815260200190815260200160002060009054906101000a900460ff169050919050565b60006003600083815260200190815260200160002060009054906101000a900473ffffffffffffffffffffffffffffffffffffffff169050919050565b600060149054906101000a900460ff1615610567576040517f08c379a000000000000000000000000000000000000000000000000000000000815260040161055e9061298f565b60405180910390fd5b600061057282610c36565b90508073ffffffffffffffffffffffffffffffffffffffff168373ffffffffffffffffffffffffffffffffffffffff1614156105e3576040517f08c379a00000000000000000000000000000000000000000000000000000000081526004016105da906128cf565b60405180910390fd5b8073ffffffffffffffffffffffffffffffffffffffff163373ffffffffffffffffffffffffffffffffffffffff1614806106235750610622813361116e565b5b610662576040517f08c379a00000000000000000000000000000000000000000000000000000000081526004016106599061290f565b60405180910390fd5b826003600084815260200190815260200160002060006101000a81548173ffffffffffffffffffffffffffffffffffffffff021916908373ffffffffffffffffffffffffffffffffffffffff160217905550818373ffffffffffffffffffffffffffffffffffffffff168273ffffffffffffffffffffffffffffffffffffffff167f8c5be1e5ebec7d5bd14f71427d1e84f3dd0314c0f7b2291e5b200ac8c7c3b92560405160405180910390a4505050565b6060600b805461072390612c09565b80601f016020809104026020016040519081016040528092919081815260200182805461074f90612c09565b801561079c5780601f106107715761010080835404028352916020019161079c565b820191906000526020600020905b81548152906001019060200180831161077f57829003601f168201915b5050505050905090565b6060600a80546107b590612c09565b80601f01602080910402602001604051908101604052809291908181526020018280546107e190612c09565b801561082e5780601f106108035761010080835404028352916020019161082e565b820191906000526020600020905b81548152906001019060200180831161081157829003601f168201915b5050505050905090565b6000600880549050905090565b600060149054906101000a900460ff1615610895576040517f08c379a000000000000000000000000000000000000000000000000000000000815260040161088c9061298f565b60405180910390fd5b61089f33826113b2565b6108de576040517f08c379a00000000000000000000000000000000000000000000000000000000081526004016108d59061284f565b60405180910390fd5b6108e9838383611447565b505050565b60006108f983610c73565b821061090457600080fd5b600660008473ffffffffffffffffffffffffffffffffffffffff1673ffffffffffffffffffffffffffffffffffffffff168152602001908152602001600020828154811061095557610954612da2565b5b9060005260206000200154905092915050565b60008054906101000a900473ffffffffffffffffffffffffffffffffffffffff1673ffffffffffffffffffffffffffffffffffffffff163373ffffffffffffffffffffffffffffffffffffffff16146109f6576040517f08c379a00000000000000000000000000000000000000000000000000000000081526004016109ed9061294f565b60405180910390fd5b600060149054906101000a900460ff16610a45576040517f08c379a0000000000000000000000000000000000000000000000000000000008152600401610a3c906128ef565b60405180910390fd5b60008060146101000a81548160ff0219169083151502179055507fa45f47fdea8a1efdd9029a5691c7f759c32b7c698632b563573e155625d1693360405160405180910390a1565b60008060009054906101000a900473ffffffffffffffffffffffffffffffffffffffff1673ffffffffffffffffffffffffffffffffffffffff163373ffffffffffffffffffffffffffffffffffffffff1614610b1e576040517f08c379a0000000000000000000000000000000000000000000000000000000008152600401610b159061294f565b60405180910390fd5b600060149054906101000a900460ff1615610b6e576040517f08c379a0000000000000000000000000000000000000000000000000000000008152600401610b659061298f565b60405180910390fd5b610b78838361146b565b610b818261148c565b6001905092915050565b600060149054906101000a900460ff1615610bdb576040517f08c379a0000000000000000000000000000000000000000000000000000000008152600401610bd29061298f565b60405180910390fd5b610bf683838360405180602001604052806000815250610faf565b505050565b6000610c05610838565b8210610c1057600080fd5b60088281548110610c2457610c23612da2565b5b90600052602060002001549050919050565b60006002600083815260200190815260200160002060009054906101000a900473ffffffffffffffffffffffffffffffffffffffff169050919050565b6000610cbc600460008473ffffffffffffffffffffffffffffffffffffffff1673ffffffffffffffffffffffffffffffffffffffff168152602001908152602001600020611579565b9050919050565b60008054906101000a900473ffffffffffffffffffffffffffffffffffffffff1673ffffffffffffffffffffffffffffffffffffffff163373ffffffffffffffffffffffffffffffffffffffff1614610d51576040517f08c379a0000000000000000000000000000000000000000000000000000000008152600401610d489061294f565b60405180910390fd5b600060149054906101000a900460ff1615610da1576040517f08c379a0000000000000000000000000000000000000000000000000000000008152600401610d989061298f565b60405180910390fd5b6001600060146101000a81548160ff0219169083151502179055507f9e87fac88ff661f02d44f95383c817fece4bce600a3dab7a54406878b965e75260405160405180910390a1565b60008060009054906101000a900473ffffffffffffffffffffffffffffffffffffffff16905090565b600060149054906101000a900460ff1615610e63576040517f08c379a0000000000000000000000000000000000000000000000000000000008152600401610e5a9061298f565b60405180910390fd5b3373ffffffffffffffffffffffffffffffffffffffff168273ffffffffffffffffffffffffffffffffffffffff161415610e9c57600080fd5b80600560003373ffffffffffffffffffffffffffffffffffffffff1673ffffffffffffffffffffffffffffffffffffffff16815260200190815260200160002060008473ffffffffffffffffffffffffffffffffffffffff1673ffffffffffffffffffffffffffffffffffffffff16815260200190815260200160002060006101000a81548160ff0219169083151502179055508173ffffffffffffffffffffffffffffffffffffffff163373ffffffffffffffffffffffffffffffffffffffff167f17307eab39ab6107e8899845ad3d59bd9653f200f220920489ca2b5937696c3183604051610f8d91906127f2565b60405180910390a35050565b60008060149054906101000a900460ff16905090565b600060149054906101000a900460ff1615610fff576040517f08c379a0000000000000000000000000000000000000000000000000000000008152600401610ff69061298f565b60405180910390fd5b61100a848484610845565b61101684848484611587565b61101f57600080fd5b50505050565b6060600c805461103490612c09565b80601f016020809104026020016040519081016040528092919081815260200182805461106090612c09565b80156110ad5780601f10611082576101008083540402835291602001916110ad565b820191906000526020600020905b81548152906001019060200180831161109057829003601f168201915b5050505050905090565b60606110c28261169e565b6110cb57600080fd5b600d600083815260200190815260200160002080546110e990612c09565b80601f016020809104026020016040519081016040528092919081815260200182805461111590612c09565b80156111625780601f1061113757610100808354040283529160200191611162565b820191906000526020600020905b81548152906001019060200180831161114557829003601f168201915b50505050509050919050565b6000600560008473ffffffffffffffffffffffffffffffffffffffff1673ffffffffffffffffffffffffffffffffffffffff16815260200190815260200160002060008373ffffffffffffffffffffffffffffffffffffffff1673ffffffffffffffffffffffffffffffffffffffff16815260200190815260200160002060009054906101000a900460ff16905092915050565b60008054906101000a900473ffffffffffffffffffffffffffffffffffffffff1673ffffffffffffffffffffffffffffffffffffffff163373ffffffffffffffffffffffffffffffffffffffff1614611290576040517f08c379a00000000000000000000000000000000000000000000000000000000081526004016112879061294f565b60405180910390fd5b6112af8173ffffffffffffffffffffffffffffffffffffffff16611710565b156112ef576040517f08c379a00000000000000000000000000000000000000000000000000000000081526004016112e69061292f565b60405180910390fd5b60008060009054906101000a900473ffffffffffffffffffffffffffffffffffffffff169050816000806101000a81548173ffffffffffffffffffffffffffffffffffffffff021916908373ffffffffffffffffffffffffffffffffffffffff1602179055507f7968eab4b22bf038ec92ebe260f1348c78cfe6aab0cde2542e0b9da6a6eb8f8e8160008054906101000a900473ffffffffffffffffffffffffffffffffffffffff166040516113a692919061277d565b60405180910390a15050565b6000806113be83610c36565b90508073ffffffffffffffffffffffffffffffffffffffff168473ffffffffffffffffffffffffffffffffffffffff16148061142d57508373ffffffffffffffffffffffffffffffffffffffff16611415846104da565b73ffffffffffffffffffffffffffffffffffffffff16145b8061143e575061143d818561116e565b5b91505092915050565b611452838383611723565b61145c838261196c565b6114668282611b23565b505050565b6114758282611be7565b61147f8282611b23565b61148881611d88565b5050565b600060149054906101000a900460ff16156114dc576040517f08c379a00000000000000000000000000000000000000000000000000000000081526004016114d39061298f565b60405180910390fd5b6114e58161169e565b611524576040517f08c379a000000000000000000000000000000000000000000000000000000000815260040161151b906129af565b60405180910390fd5b600c61152f82611dd1565b60405160200161154092919061273e565b604051602081830303815290604052600d60008381526020019081526020016000209080519060200190611575929190612062565b5050565b600081600001549050919050565b60006115a88473ffffffffffffffffffffffffffffffffffffffff16611710565b6115b55760019050611696565b60008473ffffffffffffffffffffffffffffffffffffffff1663150b7a02338887876040518563ffffffff1660e01b81526004016115f694939291906127a6565b602060405180830381600087803b15801561161057600080fd5b505af1158015611624573d6000803e3d6000fd5b505050506040513d601f19601f8201168201806040525081019061164891906123ce565b905063150b7a0260e01b7bffffffffffffffffffffffffffffffffffffffffffffffffffffffff1916817bffffffffffffffffffffffffffffffffffffffffffffffffffffffff1916149150505b949350505050565b6000806002600084815260200190815260200160002060009054906101000a900473ffffffffffffffffffffffffffffffffffffffff169050600073ffffffffffffffffffffffffffffffffffffffff168173ffffffffffffffffffffffffffffffffffffffff161415915050919050565b600080823b905060008111915050919050565b6002600082815260200190815260200160002060009054906101000a900473ffffffffffffffffffffffffffffffffffffffff1673ffffffffffffffffffffffffffffffffffffffff168373ffffffffffffffffffffffffffffffffffffffff16146117c4576040517f08c379a00000000000000000000000000000000000000000000000000000000081526004016117bb9061282f565b60405180910390fd5b6117e38273ffffffffffffffffffffffffffffffffffffffff16611710565b15611823576040517f08c379a000000000000000000000000000000000000000000000000000000000815260040161181a9061296f565b60405180910390fd5b61182c81611f32565b816002600083815260200190815260200160002060006101000a81548173ffffffffffffffffffffffffffffffffffffffff021916908373ffffffffffffffffffffffffffffffffffffffff1602179055506118c5600460008573ffffffffffffffffffffffffffffffffffffffff1673ffffffffffffffffffffffffffffffffffffffff168152602001908152602001600020611ff0565b61190c600460008473ffffffffffffffffffffffffffffffffffffffff1673ffffffffffffffffffffffffffffffffffffffff16815260200190815260200160002061204c565b808273ffffffffffffffffffffffffffffffffffffffff168473ffffffffffffffffffffffffffffffffffffffff167fddf252ad1be2c89b69c2b068fc378daa952ba7f163c4a11628f55a4df523b3ef60405160405180910390a4505050565b60006001600660008573ffffffffffffffffffffffffffffffffffffffff1673ffffffffffffffffffffffffffffffffffffffff168152602001908152602001600020805490506119bd9190612b1f565b9050600060076000848152602001908152602001600020549050818114611ab8576000600660008673ffffffffffffffffffffffffffffffffffffffff1673ffffffffffffffffffffffffffffffffffffffff1681526020019081526020016000208381548110611a3157611a30612da2565b5b9060005260206000200154905080600660008773ffffffffffffffffffffffffffffffffffffffff1673ffffffffffffffffffffffffffffffffffffffff1681526020019081526020016000208381548110611a9057611a8f612da2565b5b9060005260206000200181905550816007600083815260200190815260200160002081905550505b600660008573ffffffffffffffffffffffffffffffffffffffff1673ffffffffffffffffffffffffffffffffffffffff168152602001908152602001600020805480611b0757611b06612d73565b5b6001900381819060005260206000200160009055905550505050565b600660008373ffffffffffffffffffffffffffffffffffffffff1673ffffffffffffffffffffffffffffffffffffffff168152602001908152602001600020805490506007600083815260200190815260200160002081905550600660008373ffffffffffffffffffffffffffffffffffffffff1673ffffffffffffffffffffffffffffffffffffffff1681526020019081526020016000208190806001815401808255809150506001900390600052602060002001600090919091909150555050565b611c068273ffffffffffffffffffffffffffffffffffffffff16611710565b15611c46576040517f08c379a0000000000000000000000000000000000000000000000000000000008152600401611c3d9061288f565b60405180910390fd5b611c4f8161169e565b15611c8f576040517f08c379a0000000000000000000000000000000000000000000000000000000008152600401611c86906128af565b60405180910390fd5b816002600083815260200190815260200160002060006101000a81548173ffffffffffffffffffffffffffffffffffffffff021916908373ffffffffffffffffffffffffffffffffffffffff160217905550611d28600460008473ffffffffffffffffffffffffffffffffffffffff1673ffffffffffffffffffffffffffffffffffffffff16815260200190815260200160002061204c565b808273ffffffffffffffffffffffffffffffffffffffff16600073ffffffffffffffffffffffffffffffffffffffff167fddf252ad1be2c89b69c2b068fc378daa952ba7f163c4a11628f55a4df523b3ef60405160405180910390a45050565b6008805490506009600083815260200190815260200160002081905550600881908060018154018082558091505060019003906000526020600020016000909190919091505550565b60606000821415611e19576040518060400160405280600181526020017f30000000000000000000000000000000000000000000000000000000000000008152509050611f2d565b600082905060005b60008214611e4b578080611e3490612c6c565b915050600a82611e449190612aee565b9150611e21565b60008167ffffffffffffffff811115611e6757611e66612dd1565b5b6040519080825280601f01601f191660200182016040528015611e995781602001600182028036833780820191505090505b5090505b60008514611f2657600182611eb29190612b1f565b9150600a85611ec19190612cb5565b6030611ecd9190612a98565b60f81b818381518110611ee357611ee2612da2565b5b60200101907effffffffffffffffffffffffffffffffffffffffffffffffffffffffffffff1916908160001a905350600a85611f1f9190612aee565b9450611e9d565b8093505050505b919050565b600073ffffffffffffffffffffffffffffffffffffffff166003600083815260200190815260200160002060009054906101000a900473ffffffffffffffffffffffffffffffffffffffff1673ffffffffffffffffffffffffffffffffffffffff1614611fed5760006003600083815260200190815260200160002060006101000a81548173ffffffffffffffffffffffffffffffffffffffff021916908373ffffffffffffffffffffffffffffffffffffffff1602179055505b50565b6000816000015490506000811161203c576040517f08c379a00000000000000000000000000000000000000000000000000000000081526004016120339061286f565b60405180910390fd5b6001810382600001819055505050565b6001816000016000828254019250508190555050565b82805461206e90612c09565b90600052602060002090601f01602090048101928261209057600085556120d7565b82601f106120a957805160ff19168380011785556120d7565b828001600101855582156120d7579182015b828111156120d65782518255916020019190600101906120bb565b5b5090506120e491906120e8565b5090565b5b808211156121015760008160009055506001016120e9565b5090565b600061211861211384612a0f565b6129ea565b90508281526020810184848401111561213457612133612e05565b5b61213f848285612bc7565b509392505050565b6000813590506121568161316a565b92915050565b60008135905061216b81613181565b92915050565b60008135905061218081613198565b92915050565b60008151905061219581613198565b92915050565b600082601f8301126121b0576121af612e00565b5b81356121c0848260208601612105565b91505092915050565b6000813590506121d8816131af565b92915050565b6000602082840312156121f4576121f3612e0f565b5b600061220284828501612147565b91505092915050565b6000806040838503121561222257612221612e0f565b5b600061223085828601612147565b925050602061224185828601612147565b9150509250929050565b60008060006060848603121561226457612263612e0f565b5b600061227286828701612147565b935050602061228386828701612147565b9250506040612294868287016121c9565b9150509250925092565b600080600080608085870312156122b8576122b7612e0f565b5b60006122c687828801612147565b94505060206122d787828801612147565b93505060406122e8878288016121c9565b925050606085013567ffffffffffffffff81111561230957612308612e0a565b5b6123158782880161219b565b91505092959194509250565b6000806040838503121561233857612337612e0f565b5b600061234685828601612147565b92505060206123578582860161215c565b9150509250929050565b6000806040838503121561237857612377612e0f565b5b600061238685828601612147565b9250506020612397858286016121c9565b9150509250929050565b6000602082840312156123b7576123b6612e0f565b5b60006123c584828501612171565b91505092915050565b6000602082840312156123e4576123e3612e0f565b5b60006123f284828501612186565b91505092915050565b60006020828403121561241157612410612e0f565b5b600061241f848285016121c9565b91505092915050565b61243181612b53565b82525050565b61244081612b65565b82525050565b600061245182612a55565b61245b8185612a6b565b935061246b818560208601612bd6565b61247481612e14565b840191505092915050565b600061248a82612a60565b6124948185612a7c565b93506124a4818560208601612bd6565b6124ad81612e14565b840191505092915050565b60006124c382612a60565b6124cd8185612a8d565b93506124dd818560208601612bd6565b80840191505092915050565b600081546124f681612c09565b6125008186612a8d565b9450600182166000811461251b576001811461252c5761255f565b60ff1983168652818601935061255f565b61253585612a40565b60005b8381101561255757815481890152600182019150602081019050612538565b838801955050505b50505092915050565b6000612575602383612a7c565b915061258082612e25565b604082019050919050565b6000612598602283612a7c565b91506125a382612e74565b604082019050919050565b60006125bb601b83612a7c565b91506125c682612ec3565b602082019050919050565b60006125de602783612a7c565b91506125e982612eec565b604082019050919050565b6000612601601483612a7c565b915061260c82612f3b565b602082019050919050565b6000612624603483612a7c565b915061262f82612f64565b604082019050919050565b6000612647601683612a7c565b915061265282612fb3565b602082019050919050565b600061266a602683612a7c565b915061267582612fdc565b604082019050919050565b600061268d602283612a7c565b91506126988261302b565b604082019050919050565b60006126b0602583612a7c565b91506126bb8261307a565b604082019050919050565b60006126d3601883612a7c565b91506126de826130c9565b602082019050919050565b60006126f6601283612a7c565b9150612701826130f2565b602082019050919050565b6000612719602983612a7c565b91506127248261311b565b604082019050919050565b61273881612bbd565b82525050565b600061274a82856124e9565b915061275682846124b8565b91508190509392505050565b60006020820190506127776000830184612428565b92915050565b60006040820190506127926000830185612428565b61279f6020830184612428565b9392505050565b60006080820190506127bb6000830187612428565b6127c86020830186612428565b6127d5604083018561272f565b81810360608301526127e78184612446565b905095945050505050565b60006020820190506128076000830184612437565b92915050565b60006020820190508181036000830152612827818461247f565b905092915050565b6000602082019050818103600083015261284881612568565b9050919050565b600060208201905081810360008301526128688161258b565b9050919050565b60006020820190508181036000830152612888816125ae565b9050919050565b600060208201905081810360008301526128a8816125d1565b9050919050565b600060208201905081810360008301526128c8816125f4565b9050919050565b600060208201905081810360008301526128e881612617565b9050919050565b600060208201905081810360008301526129088161263a565b9050919050565b600060208201905081810360008301526129288161265d565b9050919050565b6000602082019050818103600083015261294881612680565b9050919050565b60006020820190508181036000830152612968816126a3565b9050919050565b60006020820190508181036000830152612988816126c6565b9050919050565b600060208201905081810360008301526129a8816126e9565b9050919050565b600060208201905081810360008301526129c88161270c565b9050919050565b60006020820190506129e4600083018461272f565b92915050565b60006129f4612a05565b9050612a008282612c3b565b919050565b6000604051905090565b600067ffffffffffffffff821115612a2a57612a29612dd1565b5b612a3382612e14565b9050602081019050919050565b60008190508160005260206000209050919050565b600081519050919050565b600081519050919050565b600082825260208201905092915050565b600082825260208201905092915050565b600081905092915050565b6000612aa382612bbd565b9150612aae83612bbd565b9250827fffffffffffffffffffffffffffffffffffffffffffffffffffffffffffffffff03821115612ae357612ae2612ce6565b5b828201905092915050565b6000612af982612bbd565b9150612b0483612bbd565b925082612b1457612b13612d15565b5b828204905092915050565b6000612b2a82612bbd565b9150612b3583612bbd565b925082821015612b4857612b47612ce6565b5b828203905092915050565b6000612b5e82612b9d565b9050919050565b60008115159050919050565b60007fffffffff0000000000000000000000000000000000000000000000000000000082169050919050565b600073ffffffffffffffffffffffffffffffffffffffff82169050919050565b6000819050919050565b82818337600083830152505050565b60005b83811015612bf4578082015181840152602081019050612bd9565b83811115612c03576000848401525b50505050565b60006002820490506001821680612c2157607f821691505b60208210811415612c3557612c34612d44565b5b50919050565b612c4482612e14565b810181811067ffffffffffffffff82111715612c6357612c62612dd1565b5b80604052505050565b6000612c7782612bbd565b91507fffffffffffffffffffffffffffffffffffffffffffffffffffffffffffffffff821415612caa57612ca9612ce6565b5b600182019050919050565b6000612cc082612bbd565b9150612ccb83612bbd565b925082612cdb57612cda612d15565b5b828206905092915050565b7f4e487b7100000000000000000000000000000000000000000000000000000000600052601160045260246000fd5b7f4e487b7100000000000000000000000000000000000000000000000000000000600052601260045260246000fd5b7f4e487b7100000000000000000000000000000000000000000000000000000000600052602260045260246000fd5b7f4e487b7100000000000000000000000000000000000000000000000000000000600052603160045260246000fd5b7f4e487b7100000000000000000000000000000000000000000000000000000000600052603260045260246000fd5b7f4e487b7100000000000000000000000000000000000000000000000000000000600052604160045260246000fd5b600080fd5b600080fd5b600080fd5b600080fd5b6000601f19601f8301169050919050565b7f46726f6d2061646472657373206973206e6f742074686520746f6b656e206f7760008201527f6e65720000000000000000000000000000000000000000000000000000000000602082015250565b7f596f7520617265206e6f7420746865206f776e6572206e6f7220617070726f7660008201527f6564000000000000000000000000000000000000000000000000000000000000602082015250565b7f436f756e7465723a2064656372656d656e74206f766572666c6f770000000000600082015250565b7f54617267657420616464726573732073686f756c64206e6f742062652061206360008201527f6f6e747261637400000000000000000000000000000000000000000000000000602082015250565b7f546f6b656e20616c726561647920657869737473000000000000000000000000600082015250565b7f476976656e20616464726573732073686f756c64206e6f74206265207468652060008201527f61646472657373206f6620746865206f776e6572000000000000000000000000602082015250565b7f436f6e7472616374206973206e6f742070617573656400000000000000000000600082015250565b7f596f7520617265206e6f7420746865206f776e6572206e6f7220746865206f7060008201527f657261746f720000000000000000000000000000000000000000000000000000602082015250565b7f4e6577206f776e65722073686f756c642062652061207265616c20616464726560008201527f7373000000000000000000000000000000000000000000000000000000000000602082015250565b7f596f7520617265206e6f7420746865206f776e6572206f662074686520636f6e60008201527f7472616374000000000000000000000000000000000000000000000000000000602082015250565b7f546f2061646472657373206973206120636f6e74726163740000000000000000600082015250565b7f436f6e7472616374206973207061757365640000000000000000000000000000600082015250565b7f546f6b656e2068617320746f206578697374206265666f72652073657474696e60008201527f6720697473205552490000000000000000000000000000000000000000000000602082015250565b61317381612b53565b811461317e57600080fd5b50565b61318a81612b65565b811461319557600080fd5b50565b6131a181612b71565b81146131ac57600080fd5b50565b6131b881612bbd565b81146131c357600080fd5b5056fea2646970667358221220ccaceabccf6bd9fea90137421b98bba5d053b909043bff2afb294030e4e3289164736f6c6343000807003368747470733a2f2f73332d75732d776573742d322e616d617a6f6e6177732e636f6d2f756461636974792d626c6f636b636861696e2f63617073746f6e652f",
  "immutableReferences": {},
  "source": "// SPDX-License-Identifier: UNLICENSED\npragma solidity ^0.8.7;\n\nimport '@openzeppelin/contracts/utils/Address.sol';\nimport '@openzeppelin/contracts/utils/Counters.sol';\nimport '@openzeppelin/contracts/token/ERC721/IERC721Receiver.sol';\nimport \"@openzeppelin/contracts/utils/Address.sol\";\nimport \"@openzeppelin/contracts/utils/Strings.sol\";\n\nabstract contract Ownable {\n    using Address for address;\n    \n    //  1) create a private '_owner' variable of type address with a public getter function\n    address private _owner;\n    \n    //  2) create an internal constructor that sets the _owner var to the creater of the contract \n    constructor() {\n        _owner = msg.sender;\n        emit OwnerShipTransfered(address(0x0), _owner);\n    }\n    \n    //  3) create an 'onlyOwner' modifier that throws if called by any account other than the owner.\n    modifier onlyOwner() {\n        require(msg.sender == _owner, \"You are not the owner of the contract\");\n        _;\n    }\n    \n    //  5) create an event that emits anytime ownerShip is transfered (including in the constructor)\n    event OwnerShipTransfered(address previousOwner, address newOwner);\n\n    function getOwner () public view returns (address) {\n        return _owner;\n    }\n\n    function transferOwnership(address newOwner) public onlyOwner {\n        // make sure the new owner is a real address\n        require(!newOwner.isContract(), \"New owner should be a real address\");\n        \n        // transfer control of the contract to a newOwner.\n        address previousOwner = _owner;\n        _owner = newOwner;\n        emit OwnerShipTransfered(previousOwner, _owner);\n    }\n}\n\n// Create a Pausable contract that inherits from the Ownable contract\nabstract contract Pausable is Ownable {\n    //  1) create a private '_paused' variable of type bool\n    bool private _paused;\n\n    //  5) create a Paused & Unpaused event that emits the address that triggered the event\n    event Paused();\n    event Unpaused();\n\n    //  4) create 'whenNotPaused' & 'paused' modifier that throws in the appropriate situation\n    modifier whenNotPaused() {\n        require(!_paused, \"Contract is paused\");\n        _;\n    }\n\n    modifier paused() {\n        require(_paused, \"Contract is not paused\");\n        _;\n    }\n\n    //  3) create an internal constructor that sets the _paused variable to false\n    constructor() {\n        _paused = false;\n    }\n\n    //  2) create a public setter using the inherited onlyOwner modifier \n    function pause() onlyOwner whenNotPaused public {\n        _paused = true;\n        emit Paused();\n    }\n\n    function unpause() onlyOwner paused public {\n        _paused = false;\n        emit Unpaused();\n    }\n\n    function isPaused() public view returns (bool) {\n        return _paused;\n    }\n}\n\ncontract ERC165 {\n    bytes4 private constant _INTERFACE_ID_ERC165 = 0x01ffc9a7;\n    /*\n     * 0x01ffc9a7 ===\n     *     bytes4(keccak256('supportsInterface(bytes4)'))\n     */\n\n    /**\n     * @dev a mapping of interface id to whether or not it's supported\n     */\n    mapping(bytes4 => bool) private _supportedInterfaces;\n\n    /**\n     * @dev A contract implementing SupportsInterfaceWithLookup\n     * implement ERC165 itself\n     */\n    constructor () {\n        _registerInterface(_INTERFACE_ID_ERC165);\n    }\n\n    /**\n     * @dev implement supportsInterface(bytes4) using a lookup table\n     */\n    function supportsInterface(bytes4 interfaceId) external view returns (bool) {\n        return _supportedInterfaces[interfaceId];\n    }\n\n    /**\n     * @dev internal method for registering an interface\n     */\n    function _registerInterface(bytes4 interfaceId) internal {\n        require(interfaceId != 0xffffffff);\n        _supportedInterfaces[interfaceId] = true;\n    }\n}\n\ncontract ERC721 is Pausable, ERC165 {\n\n    event Transfer(address indexed from, address indexed to, uint256 indexed tokenId);\n\n    event Approval(address indexed owner, address indexed approved, uint256 indexed tokenId);\n\n    event ApprovalForAll(address indexed owner, address indexed operator, bool approved);\n    \n    using Address for address;\n    using Counters for Counters.Counter;\n\n    // Equals to `bytes4(keccak256(\"onERC721Received(address,address,uint256,bytes)\"))`\n    // which can be also obtained as `IERC721Receiver(0).onERC721Received.selector`\n    bytes4 private constant _ERC721_RECEIVED = 0x150b7a02;\n\n    // Mapping from token ID to owner\n    mapping (uint256 => address) private _tokenOwner;\n\n    // Mapping from token ID to approved address\n    mapping (uint256 => address) private _tokenApprovals;\n\n    // Mapping from owner to number of owned token\n    // IMPORTANT: this mapping uses Counters lib which is used to protect overflow when incrementing/decrementing a uint\n    // use the following functions when interacting with Counters: increment(), decrement(), and current() to get the value\n    // see: https://github.com/OpenZeppelin/openzeppelin-solidity/blob/master/contracts/drafts/Counters.sol\n    mapping (address => Counters.Counter) private _ownedTokensCount;\n\n    // Mapping from owner to operator approvals\n    mapping (address => mapping (address => bool)) private _operatorApprovals;\n\n    bytes4 private constant _INTERFACE_ID_ERC721 = 0x80ac58cd;\n\n    constructor () {\n        // register the supported interfaces to conform to ERC721 via ERC165\n        _registerInterface(_INTERFACE_ID_ERC721);\n    }\n\n    function balanceOf(address owner) public view returns (uint256) {\n        return _ownedTokensCount[owner].current();\n    }\n\n    function ownerOf(uint256 tokenId) public view returns (address) {\n        // return the owner of the given tokenId\n        return _tokenOwner[tokenId];\n    }\n\n    // @dev Approves another address to transfer the given token ID\n    function approve(address to, uint256 tokenId) public whenNotPaused {\n        address owner = ownerOf(tokenId);\n        \n        // require the given address to not be the owner of the tokenId\n        require(to != owner, \"Given address should not be the address of the owner\");\n\n        // require the msg sender to be the owner of the contract or isApprovedForAll() to be true\n        require(msg.sender == owner || isApprovedForAll(owner, msg.sender), \"You are not the owner nor the operator\");\n\n        // add 'to' address to token approvals\n        _tokenApprovals[tokenId] = to;\n\n        // emit Approval Event\n        emit Approval(owner, to, tokenId);\n    }\n\n    function getApproved(uint256 tokenId) public view returns (address) {\n        // return token approval if it exists\n        return _tokenApprovals[tokenId];\n    }\n\n    /**\n     * @dev Sets or unsets the approval of a given operator\n     * An operator is allowed to transfer all tokens of the sender on their behalf\n     * @param to operator address to set the approval\n     * @param approved representing the status of the approval to be set\n     */\n    function setApprovalForAll(address to, bool approved) public whenNotPaused {\n        require(to != msg.sender);\n        _operatorApprovals[msg.sender][to] = approved;\n        emit ApprovalForAll(msg.sender, to, approved);\n    }\n\n    /**\n     * @dev Tells whether an operator is approved by a given owner\n     * @param owner owner address which you want to query the approval of\n     * @param operator operator address which you want to query the approval of\n     * @return bool whether the given operator is approved by the given owner\n     */\n    function isApprovedForAll(address owner, address operator) public view returns (bool) {\n        return _operatorApprovals[owner][operator];\n    }\n\n    function transferFrom(address from, address to, uint256 tokenId) public whenNotPaused {\n        require(_isApprovedOrOwner(msg.sender, tokenId), \"You are not the owner nor approved\");\n\n        _transferFrom(from, to, tokenId);\n    }\n\n    function safeTransferFrom(address from, address to, uint256 tokenId) public whenNotPaused {\n        safeTransferFrom(from, to, tokenId, \"\");\n    }\n\n    function safeTransferFrom(address from, address to, uint256 tokenId, bytes memory _data) public whenNotPaused {\n        transferFrom(from, to, tokenId);\n        require(_checkOnERC721Received(from, to, tokenId, _data));\n    }\n\n    /**\n     * @dev Returns whether the specified token exists\n     * @param tokenId uint256 ID of the token to query the existence of\n     * @return bool whether the token exists\n     */\n    function _exists(uint256 tokenId) internal view returns (bool) {\n        address owner = _tokenOwner[tokenId];\n        return owner != address(0);\n    }\n\n    /**\n     * @dev Returns whether the given spender can transfer a given token ID\n     * @param spender address of the spender to query\n     * @param tokenId uint256 ID of the token to be transferred\n     * @return bool whether the msg.sender is approved for the given token ID,\n     * is an operator of the owner, or is the owner of the token\n     */\n    function _isApprovedOrOwner(address spender, uint256 tokenId) internal view returns (bool) {\n        address owner = ownerOf(tokenId);\n        return (spender == owner || getApproved(tokenId) == spender || isApprovedForAll(owner, spender));\n    }\n\n    // @dev Internal function to mint a new token\n    // TIP: remember the functions to use for Counters. you can refresh yourself with the link above\n    function _mint(address to, uint256 tokenId) internal virtual {\n        // revert if given tokenId already exists or given address is invalid\n        require(!to.isContract(), \"Target address should not be a contract\");\n        require(!_exists(tokenId), \"Token already exists\");\n  \n        // mint tokenId to given address & increase token count of owner\n        _tokenOwner[tokenId] = to;\n        _ownedTokensCount[to].increment();\n\n        // emit Transfer event\n        emit Transfer(address(0x0), to, tokenId);\n    }\n\n    // @dev Internal function to transfer ownership of a given token ID to another address.\n    // TIP: remember the functions to use for Counters. you can refresh yourself with the link above\n    function _transferFrom(address from, address to, uint256 tokenId) internal virtual {\n\n        // require from address is the owner of the given token\n        require(from == _tokenOwner[tokenId], \"From address is not the token owner\");\n\n        // require token is being transfered to valid address\n        require(!to.isContract(), \"To address is a contract\");\n        \n        // clear approval\n        _clearApproval(tokenId);\n\n        // update token counts & transfer ownership of the token ID \n        _tokenOwner[tokenId] = to;\n        _ownedTokensCount[from].decrement();\n        _ownedTokensCount[to].increment();\n\n        // emit correct event\n        emit Transfer(from, to, tokenId);\n    }\n\n    /**\n     * @dev Internal function to invoke `onERC721Received` on a target address\n     * The call is not executed if the target address is not a contract\n     * @param from address representing the previous owner of the given token ID\n     * @param to target address that will receive the tokens\n     * @param tokenId uint256 ID of the token to be transferred\n     * @param _data bytes optional data to send along with the call\n     * @return bool whether the call correctly returned the expected magic value\n     */\n    function _checkOnERC721Received(address from, address to, uint256 tokenId, bytes memory _data)\n        internal returns (bool)\n    {\n        if (!to.isContract()) {\n            return true;\n        }\n\n        bytes4 retval = IERC721Receiver(to).onERC721Received(msg.sender, from, tokenId, _data);\n        return (retval == _ERC721_RECEIVED);\n    }\n\n    // @dev Private function to clear current approval of a given token ID\n    function _clearApproval(uint256 tokenId) private {\n        if (_tokenApprovals[tokenId] != address(0)) {\n            _tokenApprovals[tokenId] = address(0);\n        }\n    }\n}\n\ncontract ERC721Enumerable is ERC165, ERC721 {\n    // Mapping from owner to list of owned token IDs\n    mapping(address => uint256[]) private _ownedTokens;\n\n    // Mapping from token ID to index of the owner tokens list\n    mapping(uint256 => uint256) private _ownedTokensIndex;\n\n    // Array with all token ids, used for enumeration\n    uint256[] private _allTokens;\n\n    // Mapping from token id to position in the allTokens array\n    mapping(uint256 => uint256) private _allTokensIndex;\n\n    bytes4 private constant _INTERFACE_ID_ERC721_ENUMERABLE = 0x780e9d63;\n    /*\n     * 0x780e9d63 ===\n     *     bytes4(keccak256('totalSupply()')) ^\n     *     bytes4(keccak256('tokenOfOwnerByIndex(address,uint256)')) ^\n     *     bytes4(keccak256('tokenByIndex(uint256)'))\n     */\n\n    /**\n     * @dev Constructor function\n     */\n    constructor () {\n        // register the supported interface to conform to ERC721Enumerable via ERC165\n        _registerInterface(_INTERFACE_ID_ERC721_ENUMERABLE);\n    }\n\n    /**\n     * @dev Gets the token ID at a given index of the tokens list of the requested owner\n     * @param owner address owning the tokens list to be accessed\n     * @param index uint256 representing the index to be accessed of the requested tokens list\n     * @return uint256 token ID at the given index of the tokens list owned by the requested address\n     */\n    function tokenOfOwnerByIndex(address owner, uint256 index) public view returns (uint256) {\n        require(index < balanceOf(owner));\n        return _ownedTokens[owner][index];\n    }\n\n    /**\n     * @dev Gets the total amount of tokens stored by the contract\n     * @return uint256 representing the total amount of tokens\n     */\n    function totalSupply() public view returns (uint256) {\n        return _allTokens.length;\n    }\n\n    /**\n     * @dev Gets the token ID at a given index of all the tokens in this contract\n     * Reverts if the index is greater or equal to the total number of tokens\n     * @param index uint256 representing the index to be accessed of the tokens list\n     * @return uint256 token ID at the given index of the tokens list\n     */\n    function tokenByIndex(uint256 index) public view returns (uint256) {\n        require(index < totalSupply());\n        return _allTokens[index];\n    }\n\n    /**\n     * @dev Internal function to transfer ownership of a given token ID to another address.\n     * As opposed to transferFrom, this imposes no restrictions on msg.sender.\n     * @param from current owner of the token\n     * @param to address to receive the ownership of the given token ID\n     * @param tokenId uint256 ID of the token to be transferred\n     */\n    function _transferFrom(address from, address to, uint256 tokenId) internal override {\n        super._transferFrom(from, to, tokenId);\n\n        _removeTokenFromOwnerEnumeration(from, tokenId);\n\n        _addTokenToOwnerEnumeration(to, tokenId);\n    }\n\n    /**\n     * @dev Internal function to mint a new token\n     * Reverts if the given token ID already exists\n     * @param to address the beneficiary that will own the minted token\n     * @param tokenId uint256 ID of the token to be minted\n     */\n    function _mint(address to, uint256 tokenId) internal override {\n        super._mint(to, tokenId);\n\n        _addTokenToOwnerEnumeration(to, tokenId);\n\n        _addTokenToAllTokensEnumeration(tokenId);\n    }\n\n    /**\n     * @dev Gets the list of token IDs of the requested owner\n     * @param owner address owning the tokens\n     * @return uint256[] List of token IDs owned by the requested address\n     */\n    function _tokensOfOwner(address owner) internal view returns (uint256[] storage) {\n        return _ownedTokens[owner];\n    }\n\n    /**\n     * @dev Private function to add a token to this extension's ownership-tracking data structures.\n     * @param to address representing the new owner of the given token ID\n     * @param tokenId uint256 ID of the token to be added to the tokens list of the given address\n     */\n    function _addTokenToOwnerEnumeration(address to, uint256 tokenId) private {\n        _ownedTokensIndex[tokenId] = _ownedTokens[to].length;\n        _ownedTokens[to].push(tokenId);\n    }\n\n    /**\n     * @dev Private function to add a token to this extension's token tracking data structures.\n     * @param tokenId uint256 ID of the token to be added to the tokens list\n     */\n    function _addTokenToAllTokensEnumeration(uint256 tokenId) private {\n        _allTokensIndex[tokenId] = _allTokens.length;\n        _allTokens.push(tokenId);\n    }\n\n    /**\n     * @dev Private function to remove a token from this extension's ownership-tracking data structures. Note that\n     * while the token is not assigned a new owner, the _ownedTokensIndex mapping is _not_ updated: this allows for\n     * gas optimizations e.g. when performing a transfer operation (avoiding double writes).\n     * This has O(1) time complexity, but alters the order of the _ownedTokens array.\n     * @param from address representing the previous owner of the given token ID\n     * @param tokenId uint256 ID of the token to be removed from the tokens list of the given address\n     */\n    function _removeTokenFromOwnerEnumeration(address from, uint256 tokenId) private {\n        // To prevent a gap in from's tokens array, we store the last token in the index of the token to delete, and\n        // then delete the last slot (swap and pop).\n\n        uint256 lastTokenIndex = _ownedTokens[from].length - 1;\n        uint256 tokenIndex = _ownedTokensIndex[tokenId];\n\n        // When the token to delete is the last token, the swap operation is unnecessary\n        if (tokenIndex != lastTokenIndex) {\n            uint256 lastTokenId = _ownedTokens[from][lastTokenIndex];\n\n            _ownedTokens[from][tokenIndex] = lastTokenId; // Move the last token to the slot of the to-delete token\n            _ownedTokensIndex[lastTokenId] = tokenIndex; // Update the moved token's index\n        }\n\n        // This also deletes the contents at the last position of the array\n        _ownedTokens[from].pop();\n\n        // Note that _ownedTokensIndex[tokenId] hasn't been cleared: it still points to the old slot (now occupied by\n        // lastTokenId, or just over the end of the array if the token was the last one).\n    }\n\n    /**\n     * @dev Private function to remove a token from this extension's token tracking data structures.\n     * This has O(1) time complexity, but alters the order of the _allTokens array.\n     * @param tokenId uint256 ID of the token to be removed from the tokens list\n     */\n    function _removeTokenFromAllTokensEnumeration(uint256 tokenId) private {\n        // To prevent a gap in the tokens array, we store the last token in the index of the token to delete, and\n        // then delete the last slot (swap and pop).\n\n        uint256 lastTokenIndex = _allTokens.length - 1;\n        uint256 tokenIndex = _allTokensIndex[tokenId];\n\n        // When the token to delete is the last token, the swap operation is unnecessary. However, since this occurs so\n        // rarely (when the last minted token is burnt) that we still do the swap here to avoid the gas cost of adding\n        // an 'if' statement (like in _removeTokenFromOwnerEnumeration)\n        uint256 lastTokenId = _allTokens[lastTokenIndex];\n\n        _allTokens[tokenIndex] = lastTokenId; // Move the last token to the slot of the to-delete token\n        _allTokensIndex[lastTokenId] = tokenIndex; // Update the moved token's index\n\n        // This also deletes the contents at the last position of the array\n        _allTokens.pop();\n        _allTokensIndex[tokenId] = 0;\n    }\n}\n\nabstract contract ERC721Metadata is ERC721Enumerable {\n\n    // Create private vars for token _name, _symbol, and _baseTokenURI (string)\n    string private _name;\n    string private _symbol;\n    string private _baseTokenURI;\n\n    // Create private mapping of tokenId's to token uri's called '_tokenURIs'\n    mapping(uint256 => string) private _tokenURIs;\n\n    bytes4 private constant _INTERFACE_ID_ERC721_METADATA = 0x5b5e139f;\n    /*\n     * 0x5b5e139f ===\n     *     bytes4(keccak256('name()')) ^\n     *     bytes4(keccak256('symbol()')) ^\n     *     bytes4(keccak256('tokenURI(uint256)'))\n     */\n\n\n    constructor (string memory name, string memory symbol, string memory baseTokenURI) {\n        // set instance var values\n        _name = name;\n        _symbol = symbol;\n        _baseTokenURI = baseTokenURI;\n\n        _registerInterface(_INTERFACE_ID_ERC721_METADATA);\n    }\n\n    function getName() external view returns (string memory) {\n        return _name;\n    }\n\n    function getSymbol() external view returns (string memory) {\n        return _symbol;\n    }\n\n    function getBaseTokenURI() external view returns (string memory) {\n        return _baseTokenURI;\n    }\n\n    function tokenURI(uint256 tokenId) external view returns (string memory) {\n        require(_exists(tokenId));\n        return _tokenURIs[tokenId];\n    }\n\n\n    // Create an internal function to set the tokenURI of a specified tokenId\n    function setTokenURI(uint256 tokenId) internal whenNotPaused {\n        // require the token exists before setting\n        require(_exists(tokenId), \"Token has to exist before setting its URI\");\n\n        // It should be the _baseTokenURI + the tokenId in string form\n        _tokenURIs[tokenId] = string(abi.encodePacked(\n            _baseTokenURI,\n            Strings.toString(tokenId)\n        ));\n    }\n\n}\n\n//  Create CustomERC721Token contract that inherits from the ERC721Metadata contract. You can name this contract as you please\n//  1) Pass in appropriate values for the inherited ERC721Metadata contract\n//      - make the base token uri: https://s3-us-west-2.amazonaws.com/udacity-blockchain/capstone/\n//  2) create a public mint() that does the following:\n//      -can only be executed by the contract owner\n//      -takes in a 'to' address, tokenId, and tokenURI as parameters\n//      -returns a true boolean upon completion of the function\n//      -calls the superclass mint and setTokenURI functions\ncontract AirtheeHouseToken is ERC721Metadata {\n    constructor () ERC721Metadata(\"AirtheeHouseToken\", \"AHT\", \"https://s3-us-west-2.amazonaws.com/udacity-blockchain/capstone/\") {}\n    \n    function mint(address to, uint256 tokenId) public onlyOwner whenNotPaused returns (bool) {\n        _mint(to, tokenId);\n        setTokenURI(tokenId);\n        return true;\n    }\n}\n\n",
  "sourcePath": "/home/raphael/workspace/blockchain/udacity/Blockchain-Capstone/eth-contracts/contracts/ERC721Mintable.sol",
  "compiler": {
    "name": "solc",
    "version": "0.8.7+commit.e28d00a7.Emscripten.clang"
  },
  "schemaVersion": "3.4.3",
  "updatedAt": "2021-10-01T20:15:59.679Z",
  "devdoc": {
    "kind": "dev",
    "methods": {
      "isApprovedForAll(address,address)": {
        "details": "Tells whether an operator is approved by a given owner",
        "params": {
          "operator": "operator address which you want to query the approval of",
          "owner": "owner address which you want to query the approval of"
        },
        "returns": {
          "_0": "bool whether the given operator is approved by the given owner"
        }
      },
      "setApprovalForAll(address,bool)": {
        "details": "Sets or unsets the approval of a given operator An operator is allowed to transfer all tokens of the sender on their behalf",
        "params": {
          "approved": "representing the status of the approval to be set",
          "to": "operator address to set the approval"
        }
      },
      "supportsInterface(bytes4)": {
        "details": "implement supportsInterface(bytes4) using a lookup table"
      },
      "tokenByIndex(uint256)": {
        "details": "Gets the token ID at a given index of all the tokens in this contract Reverts if the index is greater or equal to the total number of tokens",
        "params": {
          "index": "uint256 representing the index to be accessed of the tokens list"
        },
        "returns": {
          "_0": "uint256 token ID at the given index of the tokens list"
        }
      },
      "tokenOfOwnerByIndex(address,uint256)": {
        "details": "Gets the token ID at a given index of the tokens list of the requested owner",
        "params": {
          "index": "uint256 representing the index to be accessed of the requested tokens list",
          "owner": "address owning the tokens list to be accessed"
        },
        "returns": {
          "_0": "uint256 token ID at the given index of the tokens list owned by the requested address"
        }
      },
      "totalSupply()": {
        "details": "Gets the total amount of tokens stored by the contract",
        "returns": {
          "_0": "uint256 representing the total amount of tokens"
        }
      }
    },
    "version": 1
  },
  "userdoc": {
    "kind": "user",
    "methods": {},
    "version": 1
  }
}