{
  "contractName": "SolnSquareVerifier",
  "abi": [
    {
      "anonymous": false,
      "inputs": [
        {
          "indexed": true,
          "internalType": "address",
          "name": "owner",
          "type": "address"
        },
        {
          "indexed": true,
          "internalType": "address",
          "name": "approved",
          "type": "address"
        },
        {
          "indexed": true,
          "internalType": "uint256",
          "name": "tokenId",
          "type": "uint256"
        }
      ],
      "name": "Approval",
      "type": "event"
    },
    {
      "anonymous": false,
      "inputs": [
        {
          "indexed": true,
          "internalType": "address",
          "name": "owner",
          "type": "address"
        },
        {
          "indexed": true,
          "internalType": "address",
          "name": "operator",
          "type": "address"
        },
        {
          "indexed": false,
          "internalType": "bool",
          "name": "approved",
          "type": "bool"
        }
      ],
      "name": "ApprovalForAll",
      "type": "event"
    },
    {
      "anonymous": false,
      "inputs": [
        {
          "indexed": false,
          "internalType": "address",
          "name": "previousOwner",
          "type": "address"
        },
        {
          "indexed": false,
          "internalType": "address",
          "name": "newOwner",
          "type": "address"
        }
      ],
      "name": "OwnerShipTransfered",
      "type": "event"
    },
    {
      "anonymous": false,
      "inputs": [],
      "name": "Paused",
      "type": "event"
    },
    {
      "anonymous": false,
      "inputs": [
        {
          "indexed": false,
          "internalType": "bytes32",
          "name": "index",
          "type": "bytes32"
        },
        {
          "indexed": false,
          "internalType": "address",
          "name": "account",
          "type": "address"
        }
      ],
      "name": "SolutionAdded",
      "type": "event"
    },
    {
      "anonymous": false,
      "inputs": [
        {
          "indexed": true,
          "internalType": "address",
          "name": "from",
          "type": "address"
        },
        {
          "indexed": true,
          "internalType": "address",
          "name": "to",
          "type": "address"
        },
        {
          "indexed": true,
          "internalType": "uint256",
          "name": "tokenId",
          "type": "uint256"
        }
      ],
      "name": "Transfer",
      "type": "event"
    },
    {
      "anonymous": false,
      "inputs": [],
      "name": "Unpaused",
      "type": "event"
    },
    {
      "inputs": [
        {
          "internalType": "address",
          "name": "to",
          "type": "address"
        },
        {
          "internalType": "uint256",
          "name": "tokenId",
          "type": "uint256"
        }
      ],
      "name": "approve",
      "outputs": [],
      "stateMutability": "nonpayable",
      "type": "function"
    },
    {
      "inputs": [
        {
          "internalType": "address",
          "name": "owner",
          "type": "address"
        }
      ],
      "name": "balanceOf",
      "outputs": [
        {
          "internalType": "uint256",
          "name": "",
          "type": "uint256"
        }
      ],
      "stateMutability": "view",
      "type": "function"
    },
    {
      "inputs": [
        {
          "internalType": "uint256",
          "name": "tokenId",
          "type": "uint256"
        }
      ],
      "name": "getApproved",
      "outputs": [
        {
          "internalType": "address",
          "name": "",
          "type": "address"
        }
      ],
      "stateMutability": "view",
      "type": "function"
    },
    {
      "inputs": [],
      "name": "getBaseTokenURI",
      "outputs": [
        {
          "internalType": "string",
          "name": "",
          "type": "string"
        }
      ],
      "stateMutability": "view",
      "type": "function"
    },
    {
      "inputs": [],
      "name": "getName",
      "outputs": [
        {
          "internalType": "string",
          "name": "",
          "type": "string"
        }
      ],
      "stateMutability": "view",
      "type": "function"
    },
    {
      "inputs": [],
      "name": "getOwner",
      "outputs": [
        {
          "internalType": "address",
          "name": "",
          "type": "address"
        }
      ],
      "stateMutability": "view",
      "type": "function"
    },
    {
      "inputs": [],
      "name": "getSymbol",
      "outputs": [
        {
          "internalType": "string",
          "name": "",
          "type": "string"
        }
      ],
      "stateMutability": "view",
      "type": "function"
    },
    {
      "inputs": [
        {
          "internalType": "address",
          "name": "owner",
          "type": "address"
        },
        {
          "internalType": "address",
          "name": "operator",
          "type": "address"
        }
      ],
      "name": "isApprovedForAll",
      "outputs": [
        {
          "internalType": "bool",
          "name": "",
          "type": "bool"
        }
      ],
      "stateMutability": "view",
      "type": "function"
    },
    {
      "inputs": [],
      "name": "isPaused",
      "outputs": [
        {
          "internalType": "bool",
          "name": "",
          "type": "bool"
        }
      ],
      "stateMutability": "view",
      "type": "function"
    },
    {
      "inputs": [
        {
          "internalType": "uint256",
          "name": "tokenId",
          "type": "uint256"
        }
      ],
      "name": "ownerOf",
      "outputs": [
        {
          "internalType": "address",
          "name": "",
          "type": "address"
        }
      ],
      "stateMutability": "view",
      "type": "function"
    },
    {
      "inputs": [],
      "name": "pause",
      "outputs": [],
      "stateMutability": "nonpayable",
      "type": "function"
    },
    {
      "inputs": [
        {
          "internalType": "address",
          "name": "from",
          "type": "address"
        },
        {
          "internalType": "address",
          "name": "to",
          "type": "address"
        },
        {
          "internalType": "uint256",
          "name": "tokenId",
          "type": "uint256"
        }
      ],
      "name": "safeTransferFrom",
      "outputs": [],
      "stateMutability": "nonpayable",
      "type": "function"
    },
    {
      "inputs": [
        {
          "internalType": "address",
          "name": "from",
          "type": "address"
        },
        {
          "internalType": "address",
          "name": "to",
          "type": "address"
        },
        {
          "internalType": "uint256",
          "name": "tokenId",
          "type": "uint256"
        },
        {
          "internalType": "bytes",
          "name": "_data",
          "type": "bytes"
        }
      ],
      "name": "safeTransferFrom",
      "outputs": [],
      "stateMutability": "nonpayable",
      "type": "function"
    },
    {
      "inputs": [
        {
          "internalType": "address",
          "name": "to",
          "type": "address"
        },
        {
          "internalType": "bool",
          "name": "approved",
          "type": "bool"
        }
      ],
      "name": "setApprovalForAll",
      "outputs": [],
      "stateMutability": "nonpayable",
      "type": "function"
    },
    {
      "inputs": [
        {
          "internalType": "bytes4",
          "name": "interfaceId",
          "type": "bytes4"
        }
      ],
      "name": "supportsInterface",
      "outputs": [
        {
          "internalType": "bool",
          "name": "",
          "type": "bool"
        }
      ],
      "stateMutability": "view",
      "type": "function"
    },
    {
      "inputs": [
        {
          "internalType": "uint256",
          "name": "index",
          "type": "uint256"
        }
      ],
      "name": "tokenByIndex",
      "outputs": [
        {
          "internalType": "uint256",
          "name": "",
          "type": "uint256"
        }
      ],
      "stateMutability": "view",
      "type": "function"
    },
    {
      "inputs": [
        {
          "internalType": "address",
          "name": "owner",
          "type": "address"
        },
        {
          "internalType": "uint256",
          "name": "index",
          "type": "uint256"
        }
      ],
      "name": "tokenOfOwnerByIndex",
      "outputs": [
        {
          "internalType": "uint256",
          "name": "",
          "type": "uint256"
        }
      ],
      "stateMutability": "view",
      "type": "function"
    },
    {
      "inputs": [
        {
          "internalType": "uint256",
          "name": "tokenId",
          "type": "uint256"
        }
      ],
      "name": "tokenURI",
      "outputs": [
        {
          "internalType": "string",
          "name": "",
          "type": "string"
        }
      ],
      "stateMutability": "view",
      "type": "function"
    },
    {
      "inputs": [],
      "name": "totalSupply",
      "outputs": [
        {
          "internalType": "uint256",
          "name": "",
          "type": "uint256"
        }
      ],
      "stateMutability": "view",
      "type": "function"
    },
    {
      "inputs": [
        {
          "internalType": "address",
          "name": "from",
          "type": "address"
        },
        {
          "internalType": "address",
          "name": "to",
          "type": "address"
        },
        {
          "internalType": "uint256",
          "name": "tokenId",
          "type": "uint256"
        }
      ],
      "name": "transferFrom",
      "outputs": [],
      "stateMutability": "nonpayable",
      "type": "function"
    },
    {
      "inputs": [
        {
          "internalType": "address",
          "name": "newOwner",
          "type": "address"
        }
      ],
      "name": "transferOwnership",
      "outputs": [],
      "stateMutability": "nonpayable",
      "type": "function"
    },
    {
      "inputs": [],
      "name": "unpause",
      "outputs": [],
      "stateMutability": "nonpayable",
      "type": "function"
    },
    {
      "inputs": [
        {
          "components": [
            {
              "components": [
                {
                  "internalType": "uint256",
                  "name": "X",
                  "type": "uint256"
                },
                {
                  "internalType": "uint256",
                  "name": "Y",
                  "type": "uint256"
                }
              ],
              "internalType": "struct Pairing.G1Point",
              "name": "a",
              "type": "tuple"
            },
            {
              "components": [
                {
                  "internalType": "uint256[2]",
                  "name": "X",
                  "type": "uint256[2]"
                },
                {
                  "internalType": "uint256[2]",
                  "name": "Y",
                  "type": "uint256[2]"
                }
              ],
              "internalType": "struct Pairing.G2Point",
              "name": "b",
              "type": "tuple"
            },
            {
              "components": [
                {
                  "internalType": "uint256",
                  "name": "X",
                  "type": "uint256"
                },
                {
                  "internalType": "uint256",
                  "name": "Y",
                  "type": "uint256"
                }
              ],
              "internalType": "struct Pairing.G1Point",
              "name": "c",
              "type": "tuple"
            }
          ],
          "internalType": "struct Verifier.Proof",
          "name": "proof",
          "type": "tuple"
        },
        {
          "internalType": "uint256[2]",
          "name": "input",
          "type": "uint256[2]"
        }
      ],
      "name": "verifyTx",
      "outputs": [
        {
          "internalType": "bool",
          "name": "r",
          "type": "bool"
        }
      ],
      "stateMutability": "view",
      "type": "function"
    },
    {
      "inputs": [
        {
          "internalType": "address",
          "name": "to",
          "type": "address"
        },
        {
          "internalType": "uint256",
          "name": "tokenId",
          "type": "uint256"
        }
      ],
      "name": "mint",
      "outputs": [
        {
          "internalType": "bool",
          "name": "",
          "type": "bool"
        }
      ],
      "stateMutability": "nonpayable",
      "type": "function"
    },
    {
      "inputs": [
        {
          "internalType": "address",
          "name": "to",
          "type": "address"
        },
        {
          "components": [
            {
              "components": [
                {
                  "internalType": "uint256",
                  "name": "X",
                  "type": "uint256"
                },
                {
                  "internalType": "uint256",
                  "name": "Y",
                  "type": "uint256"
                }
              ],
              "internalType": "struct Pairing.G1Point",
              "name": "a",
              "type": "tuple"
            },
            {
              "components": [
                {
                  "internalType": "uint256[2]",
                  "name": "X",
                  "type": "uint256[2]"
                },
                {
                  "internalType": "uint256[2]",
                  "name": "Y",
                  "type": "uint256[2]"
                }
              ],
              "internalType": "struct Pairing.G2Point",
              "name": "b",
              "type": "tuple"
            },
            {
              "components": [
                {
                  "internalType": "uint256",
                  "name": "X",
                  "type": "uint256"
                },
                {
                  "internalType": "uint256",
                  "name": "Y",
                  "type": "uint256"
                }
              ],
              "internalType": "struct Pairing.G1Point",
              "name": "c",
              "type": "tuple"
            }
          ],
          "internalType": "struct Verifier.Proof",
          "name": "proof",
          "type": "tuple"
        },
        {
          "internalType": "uint256[2]",
          "name": "inputs",
          "type": "uint256[2]"
        }
      ],
      "name": "mint",
      "outputs": [],
      "stateMutability": "nonpayable",
      "type": "function"
    },
    {
      "inputs": [
        {
          "components": [
            {
              "components": [
                {
                  "internalType": "uint256",
                  "name": "X",
                  "type": "uint256"
                },
                {
                  "internalType": "uint256",
                  "name": "Y",
                  "type": "uint256"
                }
              ],
              "internalType": "struct Pairing.G1Point",
              "name": "a",
              "type": "tuple"
            },
            {
              "components": [
                {
                  "internalType": "uint256[2]",
                  "name": "X",
                  "type": "uint256[2]"
                },
                {
                  "internalType": "uint256[2]",
                  "name": "Y",
                  "type": "uint256[2]"
                }
              ],
              "internalType": "struct Pairing.G2Point",
              "name": "b",
              "type": "tuple"
            },
            {
              "components": [
                {
                  "internalType": "uint256",
                  "name": "X",
                  "type": "uint256"
                },
                {
                  "internalType": "uint256",
                  "name": "Y",
                  "type": "uint256"
                }
              ],
              "internalType": "struct Pairing.G1Point",
              "name": "c",
              "type": "tuple"
            }
          ],
          "internalType": "struct Verifier.Proof",
          "name": "proof",
          "type": "tuple"
        },
        {
          "internalType": "uint256[2]",
          "name": "inputs",
          "type": "uint256[2]"
        }
      ],
      "name": "isSolutionSubmitted",
      "outputs": [
        {
          "internalType": "bool",
          "name": "",
          "type": "bool"
        }
      ],
      "stateMutability": "view",
      "type": "function"
    }
  ],
  "bytecode": "0x60806040523480156200001157600080fd5b506040518060400160405280601181526020017f41697274686565486f757365546f6b656e0000000000000000000000000000008152506040518060400160405280600381526020017f41485400000000000000000000000000000000000000000000000000000000008152506040518060600160405280603f815260200162004ecb603f9139336000806101000a81548173ffffffffffffffffffffffffffffffffffffffff021916908373ffffffffffffffffffffffffffffffffffffffff1602179055507f7968eab4b22bf038ec92ebe260f1348c78cfe6aab0cde2542e0b9da6a6eb8f8e60008060009054906101000a900473ffffffffffffffffffffffffffffffffffffffff166040516200012d92919062000364565b60405180910390a160008060146101000a81548160ff021916908315150217905550620001676301ffc9a760e01b6200020360201b60201c565b6200017f6380ac58cd60e01b6200020360201b60201c565b6200019763780e9d6360e01b6200020360201b60201c565b82600a9080519060200190620001af929190620002a3565b5081600b9080519060200190620001c8929190620002a3565b5080600c9080519060200190620001e1929190620002a3565b50620001fa635b5e139f60e01b6200020360201b60201c565b5050506200042a565b63ffffffff60e01b817bffffffffffffffffffffffffffffffffffffffffffffffffffffffff191614156200023757600080fd5b6001806000837bffffffffffffffffffffffffffffffffffffffffffffffffffffffff19167bffffffffffffffffffffffffffffffffffffffffffffffffffffffff1916815260200190815260200160002060006101000a81548160ff02191690831515021790555050565b828054620002b190620003c5565b90600052602060002090601f016020900481019282620002d5576000855562000321565b82601f10620002f057805160ff191683800117855562000321565b8280016001018555821562000321579182015b828111156200032057825182559160200191906001019062000303565b5b50905062000330919062000334565b5090565b5b808211156200034f57600081600090555060010162000335565b5090565b6200035e8162000391565b82525050565b60006040820190506200037b600083018562000353565b6200038a602083018462000353565b9392505050565b60006200039e82620003a5565b9050919050565b600073ffffffffffffffffffffffffffffffffffffffff82169050919050565b60006002820490506001821680620003de57607f821691505b60208210811415620003f557620003f4620003fb565b5b50919050565b7f4e487b7100000000000000000000000000000000000000000000000000000000600052602260045260246000fd5b614a91806200043a6000396000f3fe608060405234801561001057600080fd5b506004361061018e5760003560e01c80636352211e116100de578063b187bd2611610097578063c87b56dd11610071578063c87b56dd14610497578063e985e9c5146104c7578063ec149a68146104f7578063f2fde38b146105135761018e565b8063b187bd261461043f578063b88d4fde1461045d578063bdc32be0146104795761018e565b80636352211e1461036b57806370a082311461039b5780638456cb59146103cb578063893d20e8146103d557806397861fe0146103f3578063a22cb465146104235761018e565b806323b872dd1161014b57806340c10f191161012557806340c10f19146102bf57806342842e0e146102ef57806343cd76fc1461030b5780634f6ccce71461033b5761018e565b806323b872dd146102695780632f745c59146102855780633f4ba83a146102b55761018e565b806301ffc9a714610193578063081812fc146101c3578063095ea7b3146101f3578063150704011461020f57806317d7de7c1461022d57806318160ddd1461024b575b600080fd5b6101ad60048036038101906101a89190613871565b61052f565b6040516101ba9190613e92565b60405180910390f35b6101dd60048036038101906101d8919061390d565b610597565b6040516101ea9190613e02565b60405180910390f35b61020d60048036038101906102089190613831565b6105d4565b005b6102176107d1565b6040516102249190613ed6565b60405180910390f35b610235610863565b6040516102429190613ed6565b60405180910390f35b6102536108f5565b60405161026091906140f8565b60405180910390f35b610283600480360381019061027e91906136c6565b610902565b005b61029f600480360381019061029a9190613831565b6109ab565b6040516102ac91906140f8565b60405180910390f35b6102bd610a25565b005b6102d960048036038101906102d49190613831565b610b4a565b6040516102e69190613e92565b60405180910390f35b610309600480360381019061030491906136c6565b610c48565b005b610325600480360381019061032091906138cb565b610cb8565b6040516103329190613e92565b60405180910390f35b6103556004803603810190610350919061390d565b610d86565b60405161036291906140f8565b60405180910390f35b6103856004803603810190610380919061390d565b610dc1565b6040516103929190613e02565b60405180910390f35b6103b560048036038101906103b09190613659565b610dfe565b6040516103c291906140f8565b60405180910390f35b6103d3610e4e565b005b6103dd610f75565b6040516103ea9190613e02565b60405180910390f35b61040d600480360381019061040891906138cb565b610f9e565b60405161041a9190613e92565b60405180910390f35b61043d6004803603810190610438919061379c565b610fd7565b005b61044761115d565b6040516104549190613e92565b60405180910390f35b61047760048036038101906104729190613719565b611173565b005b6104816111e9565b60405161048e9190613ed6565b60405180910390f35b6104b160048036038101906104ac919061390d565b61127b565b6040516104be9190613ed6565b60405180910390f35b6104e160048036038101906104dc9190613686565b611332565b6040516104ee9190613e92565b60405180910390f35b610511600480360381019061050c91906137dc565b6113c6565b005b61052d60048036038101906105289190613659565b61149e565b005b600060016000837bffffffffffffffffffffffffffffffffffffffffffffffffffffffff19167bffffffffffffffffffffffffffffffffffffffffffffffffffffffff1916815260200190815260200160002060009054906101000a900460ff169050919050565b60006003600083815260200190815260200160002060009054906101000a900473ffffffffffffffffffffffffffffffffffffffff169050919050565b600060149054906101000a900460ff1615610624576040517f08c379a000000000000000000000000000000000000000000000000000000000815260040161061b906140b8565b60405180910390fd5b600061062f82610dc1565b90508073ffffffffffffffffffffffffffffffffffffffff168373ffffffffffffffffffffffffffffffffffffffff1614156106a0576040517f08c379a000000000000000000000000000000000000000000000000000000000815260040161069790613ff8565b60405180910390fd5b8073ffffffffffffffffffffffffffffffffffffffff163373ffffffffffffffffffffffffffffffffffffffff1614806106e057506106df8133611332565b5b61071f576040517f08c379a000000000000000000000000000000000000000000000000000000000815260040161071690614038565b60405180910390fd5b826003600084815260200190815260200160002060006101000a81548173ffffffffffffffffffffffffffffffffffffffff021916908373ffffffffffffffffffffffffffffffffffffffff160217905550818373ffffffffffffffffffffffffffffffffffffffff168273ffffffffffffffffffffffffffffffffffffffff167f8c5be1e5ebec7d5bd14f71427d1e84f3dd0314c0f7b2291e5b200ac8c7c3b92560405160405180910390a4505050565b6060600b80546107e0906143e9565b80601f016020809104026020016040519081016040528092919081815260200182805461080c906143e9565b80156108595780601f1061082e57610100808354040283529160200191610859565b820191906000526020600020905b81548152906001019060200180831161083c57829003601f168201915b5050505050905090565b6060600a8054610872906143e9565b80601f016020809104026020016040519081016040528092919081815260200182805461089e906143e9565b80156108eb5780601f106108c0576101008083540402835291602001916108eb565b820191906000526020600020905b8154815290600101906020018083116108ce57829003601f168201915b5050505050905090565b6000600880549050905090565b600060149054906101000a900460ff1615610952576040517f08c379a0000000000000000000000000000000000000000000000000000000008152600401610949906140b8565b60405180910390fd5b61095c338261164e565b61099b576040517f08c379a000000000000000000000000000000000000000000000000000000000815260040161099290613f58565b60405180910390fd5b6109a68383836116e3565b505050565b60006109b683610dfe565b82106109c157600080fd5b600660008473ffffffffffffffffffffffffffffffffffffffff1673ffffffffffffffffffffffffffffffffffffffff1681526020019081526020016000208281548110610a1257610a1161458c565b5b9060005260206000200154905092915050565b60008054906101000a900473ffffffffffffffffffffffffffffffffffffffff1673ffffffffffffffffffffffffffffffffffffffff163373ffffffffffffffffffffffffffffffffffffffff1614610ab3576040517f08c379a0000000000000000000000000000000000000000000000000000000008152600401610aaa90614078565b60405180910390fd5b600060149054906101000a900460ff16610b02576040517f08c379a0000000000000000000000000000000000000000000000000000000008152600401610af990614018565b60405180910390fd5b60008060146101000a81548160ff0219169083151502179055507fa45f47fdea8a1efdd9029a5691c7f759c32b7c698632b563573e155625d1693360405160405180910390a1565b60008060009054906101000a900473ffffffffffffffffffffffffffffffffffffffff1673ffffffffffffffffffffffffffffffffffffffff163373ffffffffffffffffffffffffffffffffffffffff1614610bdb576040517f08c379a0000000000000000000000000000000000000000000000000000000008152600401610bd290614078565b60405180910390fd5b600060149054906101000a900460ff1615610c2b576040517f08c379a0000000000000000000000000000000000000000000000000000000008152600401610c22906140b8565b60405180910390fd5b610c358383611707565b610c3e82611728565b6001905092915050565b600060149054906101000a900460ff1615610c98576040517f08c379a0000000000000000000000000000000000000000000000000000000008152600401610c8f906140b8565b60405180910390fd5b610cb383838360405180602001604052806000815250611173565b505050565b600080600267ffffffffffffffff811115610cd657610cd56145bb565b5b604051908082528060200260200182016040528015610d045781602001602082028036833780820191505090505b50905060005b6002811015610d5d57838160028110610d2657610d2561458c565b5b6020020151828281518110610d3e57610d3d61458c565b5b6020026020010181815250508080610d559061444c565b915050610d0a565b506000610d6a8286611815565b1415610d7a576001915050610d80565b60009150505b92915050565b6000610d906108f5565b8210610d9b57600080fd5b60088281548110610daf57610dae61458c565b5b90600052602060002001549050919050565b60006002600083815260200190815260200160002060009054906101000a900473ffffffffffffffffffffffffffffffffffffffff169050919050565b6000610e47600460008473ffffffffffffffffffffffffffffffffffffffff1673ffffffffffffffffffffffffffffffffffffffff1681526020019081526020016000206119ac565b9050919050565b60008054906101000a900473ffffffffffffffffffffffffffffffffffffffff1673ffffffffffffffffffffffffffffffffffffffff163373ffffffffffffffffffffffffffffffffffffffff1614610edc576040517f08c379a0000000000000000000000000000000000000000000000000000000008152600401610ed390614078565b60405180910390fd5b600060149054906101000a900460ff1615610f2c576040517f08c379a0000000000000000000000000000000000000000000000000000000008152600401610f23906140b8565b60405180910390fd5b6001600060146101000a81548160ff0219169083151502179055507f9e87fac88ff661f02d44f95383c817fece4bce600a3dab7a54406878b965e75260405160405180910390a1565b60008060009054906101000a900473ffffffffffffffffffffffffffffffffffffffff16905090565b600080610fab84846119ba565b9050600f600082815260200190815260200160002060009054906101000a900460ff1691505092915050565b600060149054906101000a900460ff1615611027576040517f08c379a000000000000000000000000000000000000000000000000000000000815260040161101e906140b8565b60405180910390fd5b3373ffffffffffffffffffffffffffffffffffffffff168273ffffffffffffffffffffffffffffffffffffffff16141561106057600080fd5b80600560003373ffffffffffffffffffffffffffffffffffffffff1673ffffffffffffffffffffffffffffffffffffffff16815260200190815260200160002060008473ffffffffffffffffffffffffffffffffffffffff1673ffffffffffffffffffffffffffffffffffffffff16815260200190815260200160002060006101000a81548160ff0219169083151502179055508173ffffffffffffffffffffffffffffffffffffffff163373ffffffffffffffffffffffffffffffffffffffff167f17307eab39ab6107e8899845ad3d59bd9653f200f220920489ca2b5937696c31836040516111519190613e92565b60405180910390a35050565b60008060149054906101000a900460ff16905090565b600060149054906101000a900460ff16156111c3576040517f08c379a00000000000000000000000000000000000000000000000000000000081526004016111ba906140b8565b60405180910390fd5b6111ce848484610902565b6111da84848484611a27565b6111e357600080fd5b50505050565b6060600c80546111f8906143e9565b80601f0160208091040260200160405190810160405280929190818152602001828054611224906143e9565b80156112715780601f1061124657610100808354040283529160200191611271565b820191906000526020600020905b81548152906001019060200180831161125457829003601f168201915b5050505050905090565b606061128682611b3e565b61128f57600080fd5b600d600083815260200190815260200160002080546112ad906143e9565b80601f01602080910402602001604051908101604052809291908181526020018280546112d9906143e9565b80156113265780601f106112fb57610100808354040283529160200191611326565b820191906000526020600020905b81548152906001019060200180831161130957829003601f168201915b50505050509050919050565b6000600560008473ffffffffffffffffffffffffffffffffffffffff1673ffffffffffffffffffffffffffffffffffffffff16815260200190815260200160002060008373ffffffffffffffffffffffffffffffffffffffff1673ffffffffffffffffffffffffffffffffffffffff16815260200190815260200160002060009054906101000a900460ff16905092915050565b60006113d283836119ba565b9050600f600082815260200190815260200160002060009054906101000a900460ff1615611435576040517f08c379a000000000000000000000000000000000000000000000000000000000815260040161142c90613f78565b60405180910390fd5b61143f8383610cb8565b61147e576040517f08c379a000000000000000000000000000000000000000000000000000000000815260040161147590613f18565b60405180910390fd5b6114888185611bb0565b61149784600e80549050610b4a565b5050505050565b60008054906101000a900473ffffffffffffffffffffffffffffffffffffffff1673ffffffffffffffffffffffffffffffffffffffff163373ffffffffffffffffffffffffffffffffffffffff161461152c576040517f08c379a000000000000000000000000000000000000000000000000000000000815260040161152390614078565b60405180910390fd5b61154b8173ffffffffffffffffffffffffffffffffffffffff16611d28565b1561158b576040517f08c379a000000000000000000000000000000000000000000000000000000000815260040161158290614058565b60405180910390fd5b60008060009054906101000a900473ffffffffffffffffffffffffffffffffffffffff169050816000806101000a81548173ffffffffffffffffffffffffffffffffffffffff021916908373ffffffffffffffffffffffffffffffffffffffff1602179055507f7968eab4b22bf038ec92ebe260f1348c78cfe6aab0cde2542e0b9da6a6eb8f8e8160008054906101000a900473ffffffffffffffffffffffffffffffffffffffff16604051611642929190613e1d565b60405180910390a15050565b60008061165a83610dc1565b90508073ffffffffffffffffffffffffffffffffffffffff168473ffffffffffffffffffffffffffffffffffffffff1614806116c957508373ffffffffffffffffffffffffffffffffffffffff166116b184610597565b73ffffffffffffffffffffffffffffffffffffffff16145b806116da57506116d98185611332565b5b91505092915050565b6116ee838383611d3b565b6116f88382611f84565b611702828261213b565b505050565b61171182826121ff565b61171b828261213b565b611724816123a0565b5050565b600060149054906101000a900460ff1615611778576040517f08c379a000000000000000000000000000000000000000000000000000000000815260040161176f906140b8565b60405180910390fd5b61178181611b3e565b6117c0576040517f08c379a00000000000000000000000000000000000000000000000000000000081526004016117b7906140d8565b60405180910390fd5b600c6117cb826123e9565b6040516020016117dc929190613d5d565b604051602081830303815290604052600d60008381526020019081526020016000209080519060200190611811929190613237565b5050565b6000807f30644e72e131a029b85045b68181585d2833e84879b9709143e1f593f00000019050600061184561254a565b90508060800151516001865161185b9190614214565b1461186557600080fd5b60006040518060400160405280600081526020016000815250905060005b865181101561191e57838782815181106118a05761189f61458c565b5b6020026020010151106118b257600080fd5b6119098261190485608001516001856118cb9190614214565b815181106118dc576118db61458c565b5b60200260200101518a85815181106118f7576118f661458c565b5b60200260200101516129c6565b612a6d565b915080806119169061444c565b915050611883565b5061194881836080015160008151811061193b5761193a61458c565b5b6020026020010151612a6d565b905061198e8560000151866020015161196084612b3a565b85604001516119728a60400151612b3a565b87606001516119848960000151612b3a565b8960200151612bdf565b61199e57600193505050506119a6565b600093505050505b92915050565b600081600001549050919050565b600082600001516000015183600001516020015184602001516000015185602001516020015186604001516000015187604001516020015187604051602001611a099796959493929190613d81565b60405160208183030381529060405280519060200120905092915050565b6000611a488473ffffffffffffffffffffffffffffffffffffffff16611d28565b611a555760019050611b36565b60008473ffffffffffffffffffffffffffffffffffffffff1663150b7a02338887876040518563ffffffff1660e01b8152600401611a969493929190613e46565b602060405180830381600087803b158015611ab057600080fd5b505af1158015611ac4573d6000803e3d6000fd5b505050506040513d601f19601f82011682018060405250810190611ae8919061389e565b905063150b7a0260e01b7bffffffffffffffffffffffffffffffffffffffffffffffffffffffff1916817bffffffffffffffffffffffffffffffffffffffffffffffffffffffff1916149150505b949350505050565b6000806002600084815260200190815260200160002060009054906101000a900473ffffffffffffffffffffffffffffffffffffffff169050600073ffffffffffffffffffffffffffffffffffffffff168173ffffffffffffffffffffffffffffffffffffffff161415915050919050565b600f600083815260200190815260200160002060009054906101000a900460ff1615611c11576040517f08c379a0000000000000000000000000000000000000000000000000000000008152600401611c0890613f38565b60405180910390fd5b600e6040518060400160405280600e8054905081526020018373ffffffffffffffffffffffffffffffffffffffff1681525090806001815401808255809150506001900390600052602060002090600202016000909190919091506000820151816000015560208201518160010160006101000a81548173ffffffffffffffffffffffffffffffffffffffff021916908373ffffffffffffffffffffffffffffffffffffffff16021790555050506001600f600084815260200190815260200160002060006101000a81548160ff0219169083151502179055507f01d5f9f5a890e5385b4f1d07d3c8c1f739f82bb433ed461d4551b7af3edc63408282604051611d1c929190613ead565b60405180910390a15050565b600080823b905060008111915050919050565b6002600082815260200190815260200160002060009054906101000a900473ffffffffffffffffffffffffffffffffffffffff1673ffffffffffffffffffffffffffffffffffffffff168373ffffffffffffffffffffffffffffffffffffffff1614611ddc576040517f08c379a0000000000000000000000000000000000000000000000000000000008152600401611dd390613ef8565b60405180910390fd5b611dfb8273ffffffffffffffffffffffffffffffffffffffff16611d28565b15611e3b576040517f08c379a0000000000000000000000000000000000000000000000000000000008152600401611e3290614098565b60405180910390fd5b611e4481612dac565b816002600083815260200190815260200160002060006101000a81548173ffffffffffffffffffffffffffffffffffffffff021916908373ffffffffffffffffffffffffffffffffffffffff160217905550611edd600460008573ffffffffffffffffffffffffffffffffffffffff1673ffffffffffffffffffffffffffffffffffffffff168152602001908152602001600020612e6a565b611f24600460008473ffffffffffffffffffffffffffffffffffffffff1673ffffffffffffffffffffffffffffffffffffffff168152602001908152602001600020612ec6565b808273ffffffffffffffffffffffffffffffffffffffff168473ffffffffffffffffffffffffffffffffffffffff167fddf252ad1be2c89b69c2b068fc378daa952ba7f163c4a11628f55a4df523b3ef60405160405180910390a4505050565b60006001600660008573ffffffffffffffffffffffffffffffffffffffff1673ffffffffffffffffffffffffffffffffffffffff16815260200190815260200160002080549050611fd591906142f5565b90506000600760008481526020019081526020016000205490508181146120d0576000600660008673ffffffffffffffffffffffffffffffffffffffff1673ffffffffffffffffffffffffffffffffffffffff16815260200190815260200160002083815481106120495761204861458c565b5b9060005260206000200154905080600660008773ffffffffffffffffffffffffffffffffffffffff1673ffffffffffffffffffffffffffffffffffffffff16815260200190815260200160002083815481106120a8576120a761458c565b5b9060005260206000200181905550816007600083815260200190815260200160002081905550505b600660008573ffffffffffffffffffffffffffffffffffffffff1673ffffffffffffffffffffffffffffffffffffffff16815260200190815260200160002080548061211f5761211e61455d565b5b6001900381819060005260206000200160009055905550505050565b600660008373ffffffffffffffffffffffffffffffffffffffff1673ffffffffffffffffffffffffffffffffffffffff168152602001908152602001600020805490506007600083815260200190815260200160002081905550600660008373ffffffffffffffffffffffffffffffffffffffff1673ffffffffffffffffffffffffffffffffffffffff1681526020019081526020016000208190806001815401808255809150506001900390600052602060002001600090919091909150555050565b61221e8273ffffffffffffffffffffffffffffffffffffffff16611d28565b1561225e576040517f08c379a000000000000000000000000000000000000000000000000000000000815260040161225590613fb8565b60405180910390fd5b61226781611b3e565b156122a7576040517f08c379a000000000000000000000000000000000000000000000000000000000815260040161229e90613fd8565b60405180910390fd5b816002600083815260200190815260200160002060006101000a81548173ffffffffffffffffffffffffffffffffffffffff021916908373ffffffffffffffffffffffffffffffffffffffff160217905550612340600460008473ffffffffffffffffffffffffffffffffffffffff1673ffffffffffffffffffffffffffffffffffffffff168152602001908152602001600020612ec6565b808273ffffffffffffffffffffffffffffffffffffffff16600073ffffffffffffffffffffffffffffffffffffffff167fddf252ad1be2c89b69c2b068fc378daa952ba7f163c4a11628f55a4df523b3ef60405160405180910390a45050565b6008805490506009600083815260200190815260200160002081905550600881908060018154018082558091505060019003906000526020600020016000909190919091505550565b60606000821415612431576040518060400160405280600181526020017f30000000000000000000000000000000000000000000000000000000000000008152509050612545565b600082905060005b6000821461246357808061244c9061444c565b915050600a8261245c919061426a565b9150612439565b60008167ffffffffffffffff81111561247f5761247e6145bb565b5b6040519080825280601f01601f1916602001820160405280156124b15781602001600182028036833780820191505090505b5090505b6000851461253e576001826124ca91906142f5565b9150600a856124d9919061449f565b60306124e59190614214565b60f81b8183815181106124fb576124fa61458c565b5b60200101907effffffffffffffffffffffffffffffffffffffffffffffffffffffffffffff1916908160001a905350600a85612537919061426a565b94506124b5565b8093505050505b919050565b6125526132bd565b60405180604001604052807f1be8556ac6139a2f8a6ddc481a6de7819456caba43ec5789cac93e8d114a908d81526020017f0a872808c745ba9757596f1776a01c0bad50626c7766f0aa6135fc969b7214a18152508160000181905250604051806040016040528060405180604001604052807f167f68cf0857390d20d255435acf70a9af255f4c60980a1410ebb092a373b3ec81526020017f07d1c43081891d24ff27ec29e4e34dc04908e9c354fbbd060d7f788aef3df3e0815250815260200160405180604001604052807f2ffb86bb56c21ed35a69c8b1bc090dff0354360af0cb87a1b60de1b79110407981526020017f20fd360ee00600069c9450e0af1828de014e9521ad9291edaa68000b00dac7db8152508152508160200181905250604051806040016040528060405180604001604052807f22679233d40f16fdbaa47f92a3bcf139d1aae821f76bf1fd9f10b6be5bfe020981526020017f0809f958da79b3854020f8018ed6af64e34ed430440de66de63c2d1347f07496815250815260200160405180604001604052807f08ee86fe89e0827079ee5db71100d0d305ec1a19bd246eb5c976cb555968785b81526020017f2e36ff231f2561e3180ee8e1f4cd6141b2444b8aa7e1c584c715db15d6261c338152508152508160400181905250604051806040016040528060405180604001604052807f226a3a585eb1278845fc61df0d61150b1e5f614b941b763292f51a4482ec505181526020017f27ca1a2c71222a143281421e844985b0a1ac9250c7306dbd49cdbd2e4de99596815250815260200160405180604001604052807f0f3d0a840de38bd2e753492925c83cb53cfce3069a1c0bf028d666f9981d0c8781526020017f2b98178c79af0afbdde9ba742602052c5eec213ff79a4f2cb9c2d9e87c5b938d8152508152508160600181905250600367ffffffffffffffff811115612819576128186145bb565b5b60405190808252806020026020018201604052801561285257816020015b61283f613304565b8152602001906001900390816128375790505b50816080018190525060405180604001604052807f14ef10f5f7efa08c3c838a7e7a29f7a49fab5671030e42d8e878ed78ad811c7c81526020017f018fe6391b89f04af2507a18d4aa81fe4ffea8a476f9c81b451da38591057f0f81525081608001516000815181106128c8576128c761458c565b5b602002602001018190525060405180604001604052807f2f75b4b28c5e7356de7d6ae7581832652fbcc26d52ec0f33aa72c6a803471cb381526020017f21bc947e6373536f15e2a5007686dd0cdc532ab805482e58a2378eb292f16fae81525081608001516001815181106129405761293f61458c565b5b602002602001018190525060405180604001604052807f0dee9adbf0daa4f65a05737a5c113cf458332cfe8ab371f8819a015e0e9d0f9581526020017f038a094f4eafaf14f9d32205a5a16b85bcf386fc5cc8d36c08727dc8e6d4a35f81525081608001516002815181106129b8576129b761458c565b5b602002602001018190525090565b6129ce613304565b6129d661331e565b8360000151816000600381106129ef576129ee61458c565b5b602002018181525050836020015181600160038110612a1157612a1061458c565b5b6020020181815250508281600260038110612a2f57612a2e61458c565b5b602002018181525050600060608360808460076107d05a03fa90508060008114612a5857612a5a565bfe5b5080612a6557600080fd5b505092915050565b612a75613304565b612a7d613340565b836000015181600060048110612a9657612a9561458c565b5b602002018181525050836020015181600160048110612ab857612ab761458c565b5b602002018181525050826000015181600260048110612ada57612ad961458c565b5b602002018181525050826020015181600360048110612afc57612afb61458c565b5b602002018181525050600060608360c08460066107d05a03fa90508060008114612b2557612b27565bfe5b5080612b3257600080fd5b505092915050565b612b42613304565b60007f30644e72e131a029b85045b68181585d97816a916871ca8d3c208c16d87cfd47905060008360000151148015612b7f575060008360200151145b15612ba3576040518060400160405280600081526020016000815250915050612bda565b604051806040016040528084600001518152602001828560200151612bc8919061449f565b83612bd391906142f5565b8152509150505b919050565b600080600467ffffffffffffffff811115612bfd57612bfc6145bb565b5b604051908082528060200260200182016040528015612c3657816020015b612c23613304565b815260200190600190039081612c1b5790505b5090506000600467ffffffffffffffff811115612c5657612c556145bb565b5b604051908082528060200260200182016040528015612c8f57816020015b612c7c613362565b815260200190600190039081612c745790505b5090508a82600081518110612ca757612ca661458c565b5b60200260200101819052508882600181518110612cc757612cc661458c565b5b60200260200101819052508682600281518110612ce757612ce661458c565b5b60200260200101819052508482600381518110612d0757612d0661458c565b5b60200260200101819052508981600081518110612d2757612d2661458c565b5b60200260200101819052508781600181518110612d4757612d4661458c565b5b60200260200101819052508581600281518110612d6757612d6661458c565b5b60200260200101819052508381600381518110612d8757612d8661458c565b5b6020026020010181905250612d9c8282612edc565b9250505098975050505050505050565b600073ffffffffffffffffffffffffffffffffffffffff166003600083815260200190815260200160002060009054906101000a900473ffffffffffffffffffffffffffffffffffffffff1673ffffffffffffffffffffffffffffffffffffffff1614612e675760006003600083815260200190815260200160002060006101000a81548173ffffffffffffffffffffffffffffffffffffffff021916908373ffffffffffffffffffffffffffffffffffffffff1602179055505b50565b60008160000154905060008111612eb6576040517f08c379a0000000000000000000000000000000000000000000000000000000008152600401612ead90613f98565b60405180910390fd5b6001810382600001819055505050565b6001816000016000828254019250508190555050565b60008151835114612eec57600080fd5b6000835190506000600682612f01919061429b565b905060008167ffffffffffffffff811115612f1f57612f1e6145bb565b5b604051908082528060200260200182016040528015612f4d5781602001602082028036833780820191505090505b50905060005b838110156131d257868181518110612f6e57612f6d61458c565b5b602002602001015160000151826000600684612f8a919061429b565b612f949190614214565b81518110612fa557612fa461458c565b5b602002602001018181525050868181518110612fc457612fc361458c565b5b602002602001015160200151826001600684612fe0919061429b565b612fea9190614214565b81518110612ffb57612ffa61458c565b5b60200260200101818152505085818151811061301a5761301961458c565b5b6020026020010151600001516001600281106130395761303861458c565b5b602002015182600260068461304e919061429b565b6130589190614214565b815181106130695761306861458c565b5b6020026020010181815250508581815181106130885761308761458c565b5b6020026020010151600001516000600281106130a7576130a661458c565b5b60200201518260036006846130bc919061429b565b6130c69190614214565b815181106130d7576130d661458c565b5b6020026020010181815250508581815181106130f6576130f561458c565b5b6020026020010151602001516001600281106131155761311461458c565b5b602002015182600460068461312a919061429b565b6131349190614214565b815181106131455761314461458c565b5b6020026020010181815250508581815181106131645761316361458c565b5b6020026020010151602001516000600281106131835761318261458c565b5b6020020151826005600684613198919061429b565b6131a29190614214565b815181106131b3576131b261458c565b5b60200260200101818152505080806131ca9061444c565b915050612f53565b506131db613388565b6000602082602086026020860160086107d05a03fa9050806000811461320057613202565bfe5b508061320d57600080fd5b6000826000600181106132235761322261458c565b5b602002015114159550505050505092915050565b828054613243906143e9565b90600052602060002090601f01602090048101928261326557600085556132ac565b82601f1061327e57805160ff19168380011785556132ac565b828001600101855582156132ac579182015b828111156132ab578251825591602001919060010190613290565b5b5090506132b991906133aa565b5090565b6040518060a001604052806132d0613304565b81526020016132dd613362565b81526020016132ea613362565b81526020016132f7613362565b8152602001606081525090565b604051806040016040528060008152602001600081525090565b6040518060600160405280600390602082028036833780820191505090505090565b6040518060800160405280600490602082028036833780820191505090505090565b60405180604001604052806133756133c7565b81526020016133826133c7565b81525090565b6040518060200160405280600190602082028036833780820191505090505090565b5b808211156133c35760008160009055506001016133ab565b5090565b6040518060400160405280600290602082028036833780820191505090505090565b60006133fc6133f784614138565b614113565b90508082856020860282011115613416576134156145f4565b5b60005b85811015613446578161342c8882613644565b845260208401935060208301925050600181019050613419565b5050509392505050565b600061346361345e8461415e565b614113565b90508281526020810184848401111561347f5761347e6145f9565b5b61348a8482856143a7565b509392505050565b6000813590506134a1816149ff565b92915050565b600082601f8301126134bc576134bb6145ea565b5b60026134c98482856133e9565b91505092915050565b6000813590506134e181614a16565b92915050565b6000813590506134f681614a2d565b92915050565b60008151905061350b81614a2d565b92915050565b600082601f830112613526576135256145ea565b5b8135613536848260208601613450565b91505092915050565b600060408284031215613555576135546145ef565b5b61355f6040614113565b9050600061356f84828501613644565b600083015250602061358384828501613644565b60208301525092915050565b6000608082840312156135a5576135a46145ef565b5b6135af6040614113565b905060006135bf848285016134a7565b60008301525060406135d3848285016134a7565b60208301525092915050565b600061010082840312156135f6576135f56145ef565b5b6136006060614113565b905060006136108482850161353f565b60008301525060406136248482850161358f565b60208301525060c06136388482850161353f565b60408301525092915050565b60008135905061365381614a44565b92915050565b60006020828403121561366f5761366e614603565b5b600061367d84828501613492565b91505092915050565b6000806040838503121561369d5761369c614603565b5b60006136ab85828601613492565b92505060206136bc85828601613492565b9150509250929050565b6000806000606084860312156136df576136de614603565b5b60006136ed86828701613492565b93505060206136fe86828701613492565b925050604061370f86828701613644565b9150509250925092565b6000806000806080858703121561373357613732614603565b5b600061374187828801613492565b945050602061375287828801613492565b935050604061376387828801613644565b925050606085013567ffffffffffffffff811115613784576137836145fe565b5b61379087828801613511565b91505092959194509250565b600080604083850312156137b3576137b2614603565b5b60006137c185828601613492565b92505060206137d2858286016134d2565b9150509250929050565b600080600061016084860312156137f6576137f5614603565b5b600061380486828701613492565b9350506020613815868287016135df565b925050610120613827868287016134a7565b9150509250925092565b6000806040838503121561384857613847614603565b5b600061385685828601613492565b925050602061386785828601613644565b9150509250929050565b60006020828403121561388757613886614603565b5b6000613895848285016134e7565b91505092915050565b6000602082840312156138b4576138b3614603565b5b60006138c2848285016134fc565b91505092915050565b60008061014083850312156138e3576138e2614603565b5b60006138f1858286016135df565b925050610100613903858286016134a7565b9150509250929050565b60006020828403121561392357613922614603565b5b600061393184828501613644565b91505092915050565b60006139468383613d37565b60208301905092915050565b61395b81614329565b82525050565b61396a816141ae565b61397481846141dc565b925061397f8261418f565b8060005b838110156139b0578151613997878261393a565b96506139a2836141cf565b925050600181019050613983565b505050505050565b6139c18161433b565b82525050565b6139d081614347565b82525050565b60006139e1826141b9565b6139eb81856141e7565b93506139fb8185602086016143b6565b613a0481614608565b840191505092915050565b6000613a1a826141c4565b613a2481856141f8565b9350613a348185602086016143b6565b613a3d81614608565b840191505092915050565b6000613a53826141c4565b613a5d8185614209565b9350613a6d8185602086016143b6565b80840191505092915050565b60008154613a86816143e9565b613a908186614209565b94506001821660008114613aab5760018114613abc57613aef565b60ff19831686528186019350613aef565b613ac585614199565b60005b83811015613ae757815481890152600182019150602081019050613ac8565b838801955050505b50505092915050565b6000613b056023836141f8565b9150613b1082614619565b604082019050919050565b6000613b28601e836141f8565b9150613b3382614668565b602082019050919050565b6000613b4b601d836141f8565b9150613b5682614691565b602082019050919050565b6000613b6e6022836141f8565b9150613b79826146ba565b604082019050919050565b6000613b916023836141f8565b9150613b9c82614709565b604082019050919050565b6000613bb4601b836141f8565b9150613bbf82614758565b602082019050919050565b6000613bd76027836141f8565b9150613be282614781565b604082019050919050565b6000613bfa6014836141f8565b9150613c05826147d0565b602082019050919050565b6000613c1d6034836141f8565b9150613c28826147f9565b604082019050919050565b6000613c406016836141f8565b9150613c4b82614848565b602082019050919050565b6000613c636026836141f8565b9150613c6e82614871565b604082019050919050565b6000613c866022836141f8565b9150613c91826148c0565b604082019050919050565b6000613ca96025836141f8565b9150613cb48261490f565b604082019050919050565b6000613ccc6018836141f8565b9150613cd78261495e565b602082019050919050565b6000613cef6012836141f8565b9150613cfa82614987565b602082019050919050565b6000613d126029836141f8565b9150613d1d826149b0565b604082019050919050565b613d318161439d565b82525050565b613d408161439d565b82525050565b613d57613d528261439d565b614495565b82525050565b6000613d698285613a79565b9150613d758284613a48565b91508190509392505050565b6000613d8d828a613d46565b602082019150613d9d8289613d46565b602082019150613dad8288613961565b604082019150613dbd8287613961565b604082019150613dcd8286613d46565b602082019150613ddd8285613d46565b602082019150613ded8284613961565b60408201915081905098975050505050505050565b6000602082019050613e176000830184613952565b92915050565b6000604082019050613e326000830185613952565b613e3f6020830184613952565b9392505050565b6000608082019050613e5b6000830187613952565b613e686020830186613952565b613e756040830185613d28565b8181036060830152613e8781846139d6565b905095945050505050565b6000602082019050613ea760008301846139b8565b92915050565b6000604082019050613ec260008301856139c7565b613ecf6020830184613952565b9392505050565b60006020820190508181036000830152613ef08184613a0f565b905092915050565b60006020820190508181036000830152613f1181613af8565b9050919050565b60006020820190508181036000830152613f3181613b1b565b9050919050565b60006020820190508181036000830152613f5181613b3e565b9050919050565b60006020820190508181036000830152613f7181613b61565b9050919050565b60006020820190508181036000830152613f9181613b84565b9050919050565b60006020820190508181036000830152613fb181613ba7565b9050919050565b60006020820190508181036000830152613fd181613bca565b9050919050565b60006020820190508181036000830152613ff181613bed565b9050919050565b6000602082019050818103600083015261401181613c10565b9050919050565b6000602082019050818103600083015261403181613c33565b9050919050565b6000602082019050818103600083015261405181613c56565b9050919050565b6000602082019050818103600083015261407181613c79565b9050919050565b6000602082019050818103600083015261409181613c9c565b9050919050565b600060208201905081810360008301526140b181613cbf565b9050919050565b600060208201905081810360008301526140d181613ce2565b9050919050565b600060208201905081810360008301526140f181613d05565b9050919050565b600060208201905061410d6000830184613d28565b92915050565b600061411d61412e565b9050614129828261441b565b919050565b6000604051905090565b600067ffffffffffffffff821115614153576141526145bb565b5b602082029050919050565b600067ffffffffffffffff821115614179576141786145bb565b5b61418282614608565b9050602081019050919050565b6000819050919050565b60008190508160005260206000209050919050565b600060029050919050565b600081519050919050565b600081519050919050565b6000602082019050919050565b600081905092915050565b600082825260208201905092915050565b600082825260208201905092915050565b600081905092915050565b600061421f8261439d565b915061422a8361439d565b9250827fffffffffffffffffffffffffffffffffffffffffffffffffffffffffffffffff0382111561425f5761425e6144d0565b5b828201905092915050565b60006142758261439d565b91506142808361439d565b9250826142905761428f6144ff565b5b828204905092915050565b60006142a68261439d565b91506142b18361439d565b9250817fffffffffffffffffffffffffffffffffffffffffffffffffffffffffffffffff04831182151516156142ea576142e96144d0565b5b828202905092915050565b60006143008261439d565b915061430b8361439d565b92508282101561431e5761431d6144d0565b5b828203905092915050565b60006143348261437d565b9050919050565b60008115159050919050565b6000819050919050565b60007fffffffff0000000000000000000000000000000000000000000000000000000082169050919050565b600073ffffffffffffffffffffffffffffffffffffffff82169050919050565b6000819050919050565b82818337600083830152505050565b60005b838110156143d45780820151818401526020810190506143b9565b838111156143e3576000848401525b50505050565b6000600282049050600182168061440157607f821691505b602082108114156144155761441461452e565b5b50919050565b61442482614608565b810181811067ffffffffffffffff82111715614443576144426145bb565b5b80604052505050565b60006144578261439d565b91507fffffffffffffffffffffffffffffffffffffffffffffffffffffffffffffffff82141561448a576144896144d0565b5b600182019050919050565b6000819050919050565b60006144aa8261439d565b91506144b58361439d565b9250826144c5576144c46144ff565b5b828206905092915050565b7f4e487b7100000000000000000000000000000000000000000000000000000000600052601160045260246000fd5b7f4e487b7100000000000000000000000000000000000000000000000000000000600052601260045260246000fd5b7f4e487b7100000000000000000000000000000000000000000000000000000000600052602260045260246000fd5b7f4e487b7100000000000000000000000000000000000000000000000000000000600052603160045260246000fd5b7f4e487b7100000000000000000000000000000000000000000000000000000000600052603260045260246000fd5b7f4e487b7100000000000000000000000000000000000000000000000000000000600052604160045260246000fd5b600080fd5b600080fd5b600080fd5b600080fd5b600080fd5b600080fd5b6000601f19601f8301169050919050565b7f46726f6d2061646472657373206973206e6f742074686520746f6b656e206f7760008201527f6e65720000000000000000000000000000000000000000000000000000000000602082015250565b7f536f6c7574696f6e20636f756c64206e6f742062652076657269666965640000600082015250565b7f536f6c7574696f6e20697320616c7265616479207375626d6974746564000000600082015250565b7f596f7520617265206e6f7420746865206f776e6572206e6f7220617070726f7660008201527f6564000000000000000000000000000000000000000000000000000000000000602082015250565b7f536f6c7574696f6e2068617320616c7265616479206265656e207375626d697460008201527f7465640000000000000000000000000000000000000000000000000000000000602082015250565b7f436f756e7465723a2064656372656d656e74206f766572666c6f770000000000600082015250565b7f54617267657420616464726573732073686f756c64206e6f742062652061206360008201527f6f6e747261637400000000000000000000000000000000000000000000000000602082015250565b7f546f6b656e20616c726561647920657869737473000000000000000000000000600082015250565b7f476976656e20616464726573732073686f756c64206e6f74206265207468652060008201527f61646472657373206f6620746865206f776e6572000000000000000000000000602082015250565b7f436f6e7472616374206973206e6f742070617573656400000000000000000000600082015250565b7f596f7520617265206e6f7420746865206f776e6572206e6f7220746865206f7060008201527f657261746f720000000000000000000000000000000000000000000000000000602082015250565b7f4e6577206f776e65722073686f756c642062652061207265616c20616464726560008201527f7373000000000000000000000000000000000000000000000000000000000000602082015250565b7f596f7520617265206e6f7420746865206f776e6572206f662074686520636f6e60008201527f7472616374000000000000000000000000000000000000000000000000000000602082015250565b7f546f2061646472657373206973206120636f6e74726163740000000000000000600082015250565b7f436f6e7472616374206973207061757365640000000000000000000000000000600082015250565b7f546f6b656e2068617320746f206578697374206265666f72652073657474696e60008201527f6720697473205552490000000000000000000000000000000000000000000000602082015250565b614a0881614329565b8114614a1357600080fd5b50565b614a1f8161433b565b8114614a2a57600080fd5b50565b614a3681614351565b8114614a4157600080fd5b50565b614a4d8161439d565b8114614a5857600080fd5b5056fea2646970667358221220094e33aff5d6f5c506afc4d513fbed041b833959ac313456348666865ae0a13e64736f6c6343000807003368747470733a2f2f73332d75732d776573742d322e616d617a6f6e6177732e636f6d2f756461636974792d626c6f636b636861696e2f63617073746f6e652f",
  "immutableReferences": {},
  "source": "// SPDX-License-Identifier: UNLICENSED\npragma solidity ^0.8.7;\n\nimport \"./ERC721Mintable.sol\";\nimport \"./SquareVerifier.sol\";\n\n// define another contract named SolnSquareVerifier that inherits from your ERC721Mintable class\ncontract SolnSquareVerifier is AirtheeHouseToken, Verifier {\n    // define a solutions struct that can hold an index & an address\n    struct Solution {\n        uint256 index;\n        address account;\n    }\n\n    // define an array of the above struct\n    Solution[] private solutions;\n\n    // define a mapping to store unique solutions submitted\n    mapping(bytes32 => bool) private submittedSolutions;\n\n    // Create an event to emit when a solution is added\n    event SolutionAdded(bytes32 index, address account);\n\n    //Create a function to add the solutions to the array and emit the event\n    function addSolution(bytes32 index, address account) internal {\n        require(!submittedSolutions[index], \"Solution is already submitted\");\n        \n        solutions.push(Solution(solutions.length, account));\n        submittedSolutions[index] = true;\n\n        emit SolutionAdded(index, account);\n    }\n\n    // Create a function to mint new NFT only after the solution has been verified\n    function mint(address to, Proof memory proof, uint[2] memory inputs) public {\n        bytes32 solutionIndex = _getSolutionIndex(proof, inputs);\n\n        //  - make sure the solution is unique (has not been used before)\n        require(!submittedSolutions[solutionIndex], \"Solution has already been submitted\");\n        require(verifyTx(proof, inputs), \"Solution could not be verified\");\n        \n        //  - make sure you handle metadata as well as tokenSuplly\n        addSolution(solutionIndex, to);        \n        super.mint(to, solutions.length);\n    }\n\n    function isSolutionSubmitted (Proof memory proof, uint[2] memory inputs) public view returns (bool) {\n        bytes32 solutionIndex = _getSolutionIndex(proof, inputs);\n        return submittedSolutions[solutionIndex];\n    }\n\n    function _getSolutionIndex(Proof memory proof, uint[2] memory inputs) pure internal returns (bytes32) {\n        return keccak256(abi.encodePacked(proof.a.X, proof.a.Y, proof.b.X, proof.b.Y, proof.c.X, proof.c.Y, inputs)); \n    }\n}\n\n\n\n  \n\n\n\n\n\n\n\n\n\n\n\n\n\n\n\n\n\n\n\n\n\n\n\n\n\n\n",
  "sourcePath": "/home/raphael/workspace/blockchain/udacity/Blockchain-Capstone/eth-contracts/contracts/SolnSquareVerifier.sol",
  "compiler": {
    "name": "solc",
    "version": "0.8.7+commit.e28d00a7.Emscripten.clang"
  },
  "schemaVersion": "3.4.3",
  "updatedAt": "2021-10-08T22:07:11.152Z",
  "devdoc": {
    "kind": "dev",
    "methods": {
      "isApprovedForAll(address,address)": {
        "details": "Tells whether an operator is approved by a given owner",
        "params": {
          "operator": "operator address which you want to query the approval of",
          "owner": "owner address which you want to query the approval of"
        },
        "returns": {
          "_0": "bool whether the given operator is approved by the given owner"
        }
      },
      "setApprovalForAll(address,bool)": {
        "details": "Sets or unsets the approval of a given operator An operator is allowed to transfer all tokens of the sender on their behalf",
        "params": {
          "approved": "representing the status of the approval to be set",
          "to": "operator address to set the approval"
        }
      },
      "supportsInterface(bytes4)": {
        "details": "implement supportsInterface(bytes4) using a lookup table"
      },
      "tokenByIndex(uint256)": {
        "details": "Gets the token ID at a given index of all the tokens in this contract Reverts if the index is greater or equal to the total number of tokens",
        "params": {
          "index": "uint256 representing the index to be accessed of the tokens list"
        },
        "returns": {
          "_0": "uint256 token ID at the given index of the tokens list"
        }
      },
      "tokenOfOwnerByIndex(address,uint256)": {
        "details": "Gets the token ID at a given index of the tokens list of the requested owner",
        "params": {
          "index": "uint256 representing the index to be accessed of the requested tokens list",
          "owner": "address owning the tokens list to be accessed"
        },
        "returns": {
          "_0": "uint256 token ID at the given index of the tokens list owned by the requested address"
        }
      },
      "totalSupply()": {
        "details": "Gets the total amount of tokens stored by the contract",
        "returns": {
          "_0": "uint256 representing the total amount of tokens"
        }
      }
    },
    "version": 1
  },
  "userdoc": {
    "kind": "user",
    "methods": {},
    "version": 1
  }
}